No.     Time           Source                Destination           Protocol Length Info
      1 0.000000000    192.168.1.158         192.168.1.147         TCP      54     editbench > http [FIN, ACK] Seq=1 Ack=1 Win=63579 Len=0

Frame 1: 54 bytes on wire (432 bits), 54 bytes captured (432 bits) on interface 0
    Interface id: 0
    Encapsulation type: Ethernet (1)
    Arrival Time: Feb 24, 2026 12:29:31.099508000 Pacific Standard Time
    [Time shift for this packet: 0.000000000 seconds]
    Epoch Time: 1771964971.099508000 seconds
    [Time delta from previous captured frame: 0.000000000 seconds]
    [Time delta from previous displayed frame: 0.000000000 seconds]
    [Time since reference or first frame: 0.000000000 seconds]
    Frame Number: 1
    Frame Length: 54 bytes (432 bits)
    Capture Length: 54 bytes (432 bits)
    [Frame is marked: False]
    [Frame is ignored: False]
    [Protocols in frame: eth:ip:tcp]
    [Coloring Rule Name: HTTP]
    [Coloring Rule String: http || tcp.port == 80]
Ethernet II, Src: Vmware_10:03:da (00:0c:29:10:03:da), Dst: Vmware_16:97:b1 (00:0c:29:16:97:b1)
    Destination: Vmware_16:97:b1 (00:0c:29:16:97:b1)
        Address: Vmware_16:97:b1 (00:0c:29:16:97:b1)
        .... ..0. .... .... .... .... = LG bit: Globally unique address (factory default)
        .... ...0 .... .... .... .... = IG bit: Individual address (unicast)
    Source: Vmware_10:03:da (00:0c:29:10:03:da)
        Address: Vmware_10:03:da (00:0c:29:10:03:da)
        .... ..0. .... .... .... .... = LG bit: Globally unique address (factory default)
        .... ...0 .... .... .... .... = IG bit: Individual address (unicast)
    Type: IP (0x0800)
Internet Protocol Version 4, Src: 192.168.1.158 (192.168.1.158), Dst: 192.168.1.147 (192.168.1.147)
    Version: 4
    Header length: 20 bytes
    Differentiated Services Field: 0x00 (DSCP 0x00: Default; ECN: 0x00: Not-ECT (Not ECN-Capable Transport))
        0000 00.. = Differentiated Services Codepoint: Default (0x00)
        .... ..00 = Explicit Congestion Notification: Not-ECT (Not ECN-Capable Transport) (0x00)
    Total Length: 40
    Identification: 0x3dfc (15868)
    Flags: 0x02 (Don't Fragment)
        0... .... = Reserved bit: Not set
        .1.. .... = Don't fragment: Set
        ..0. .... = More fragments: Not set
    Fragment offset: 0
    Time to live: 128
    Protocol: TCP (6)
    Header checksum: 0x3852 [validation disabled]
        [Good: False]
        [Bad: False]
    Source: 192.168.1.158 (192.168.1.158)
    Destination: 192.168.1.147 (192.168.1.147)
    [Source GeoIP: Unknown]
    [Destination GeoIP: Unknown]
Transmission Control Protocol, Src Port: editbench (1350), Dst Port: http (80), Seq: 1, Ack: 1, Len: 0
    Source port: editbench (1350)
    Destination port: http (80)
    [Stream index: 0]
    Sequence number: 1    (relative sequence number)
    Acknowledgment number: 1    (relative ack number)
    Header length: 20 bytes
    Flags: 0x011 (FIN, ACK)
        000. .... .... = Reserved: Not set
        ...0 .... .... = Nonce: Not set
        .... 0... .... = Congestion Window Reduced (CWR): Not set
        .... .0.. .... = ECN-Echo: Not set
        .... ..0. .... = Urgent: Not set
        .... ...1 .... = Acknowledgment: Set
        .... .... 0... = Push: Not set
        .... .... .0.. = Reset: Not set
        .... .... ..0. = Syn: Not set
        .... .... ...1 = Fin: Set
            [Expert Info (Chat/Sequence): Connection finish (FIN)]
                [Message: Connection finish (FIN)]
                [Severity level: Chat]
                [Group: Sequence]
    Window size value: 63579
    [Calculated window size: 63579]
    [Window size scaling factor: -1 (unknown)]
    Checksum: 0x780f [validation disabled]
        [Good Checksum: False]
        [Bad Checksum: False]

0000  00 0c 29 16 97 b1 00 0c 29 10 03 da 08 00 45 00   ..).....).....E.
0010  00 28 3d fc 40 00 80 06 38 52 c0 a8 01 9e c0 a8   .(=.@...8R......
0020  01 93 05 46 00 50 ce 7b 08 36 19 42 c5 5c 50 11   ...F.P.{.6.B.\P.
0030  f8 5b 78 0f 00 00                                 .[x...

No.     Time           Source                Destination           Protocol Length Info
      2 0.000473000    192.168.1.147         192.168.1.158         TCP      60     http > editbench [ACK] Seq=1 Ack=2 Win=64240 Len=0

Frame 2: 60 bytes on wire (480 bits), 60 bytes captured (480 bits) on interface 0
    Interface id: 0
    Encapsulation type: Ethernet (1)
    Arrival Time: Feb 24, 2026 12:29:31.099981000 Pacific Standard Time
    [Time shift for this packet: 0.000000000 seconds]
    Epoch Time: 1771964971.099981000 seconds
    [Time delta from previous captured frame: 0.000473000 seconds]
    [Time delta from previous displayed frame: 0.000473000 seconds]
    [Time since reference or first frame: 0.000473000 seconds]
    Frame Number: 2
    Frame Length: 60 bytes (480 bits)
    Capture Length: 60 bytes (480 bits)
    [Frame is marked: False]
    [Frame is ignored: False]
    [Protocols in frame: eth:ip:tcp]
    [Coloring Rule Name: HTTP]
    [Coloring Rule String: http || tcp.port == 80]
Ethernet II, Src: Vmware_16:97:b1 (00:0c:29:16:97:b1), Dst: Vmware_10:03:da (00:0c:29:10:03:da)
    Destination: Vmware_10:03:da (00:0c:29:10:03:da)
        Address: Vmware_10:03:da (00:0c:29:10:03:da)
        .... ..0. .... .... .... .... = LG bit: Globally unique address (factory default)
        .... ...0 .... .... .... .... = IG bit: Individual address (unicast)
    Source: Vmware_16:97:b1 (00:0c:29:16:97:b1)
        Address: Vmware_16:97:b1 (00:0c:29:16:97:b1)
        .... ..0. .... .... .... .... = LG bit: Globally unique address (factory default)
        .... ...0 .... .... .... .... = IG bit: Individual address (unicast)
    Type: IP (0x0800)
    Padding: 000000000000
Internet Protocol Version 4, Src: 192.168.1.147 (192.168.1.147), Dst: 192.168.1.158 (192.168.1.158)
    Version: 4
    Header length: 20 bytes
    Differentiated Services Field: 0x00 (DSCP 0x00: Default; ECN: 0x00: Not-ECT (Not ECN-Capable Transport))
        0000 00.. = Differentiated Services Codepoint: Default (0x00)
        .... ..00 = Explicit Congestion Notification: Not-ECT (Not ECN-Capable Transport) (0x00)
    Total Length: 40
    Identification: 0xd80a (55306)
    Flags: 0x02 (Don't Fragment)
        0... .... = Reserved bit: Not set
        .1.. .... = Don't fragment: Set
        ..0. .... = More fragments: Not set
    Fragment offset: 0
    Time to live: 128
    Protocol: TCP (6)
    Header checksum: 0x9e43 [validation disabled]
        [Good: False]
        [Bad: False]
    Source: 192.168.1.147 (192.168.1.147)
    Destination: 192.168.1.158 (192.168.1.158)
    [Source GeoIP: Unknown]
    [Destination GeoIP: Unknown]
Transmission Control Protocol, Src Port: http (80), Dst Port: editbench (1350), Seq: 1, Ack: 2, Len: 0
    Source port: http (80)
    Destination port: editbench (1350)
    [Stream index: 0]
    Sequence number: 1    (relative sequence number)
    Acknowledgment number: 2    (relative ack number)
    Header length: 20 bytes
    Flags: 0x010 (ACK)
        000. .... .... = Reserved: Not set
        ...0 .... .... = Nonce: Not set
        .... 0... .... = Congestion Window Reduced (CWR): Not set
        .... .0.. .... = ECN-Echo: Not set
        .... ..0. .... = Urgent: Not set
        .... ...1 .... = Acknowledgment: Set
        .... .... 0... = Push: Not set
        .... .... .0.. = Reset: Not set
        .... .... ..0. = Syn: Not set
        .... .... ...0 = Fin: Not set
    Window size value: 64240
    [Calculated window size: 64240]
    [Window size scaling factor: -1 (unknown)]
    Checksum: 0x757a [validation disabled]
        [Good Checksum: False]
        [Bad Checksum: False]
    [SEQ/ACK analysis]
        [This is an ACK to the segment in frame: 1]
        [The RTT to ACK the segment was: 0.000473000 seconds]

0000  00 0c 29 10 03 da 00 0c 29 16 97 b1 08 00 45 00   ..).....).....E.
0010  00 28 d8 0a 40 00 80 06 9e 43 c0 a8 01 93 c0 a8   .(..@....C......
0020  01 9e 00 50 05 46 19 42 c5 5c ce 7b 08 37 50 10   ...P.F.B.\.{.7P.
0030  fa f0 75 7a 00 00 00 00 00 00 00 00               ..uz........

No.     Time           Source                Destination           Protocol Length Info
      3 0.000589000    192.168.1.147         192.168.1.158         TCP      60     http > editbench [FIN, ACK] Seq=1 Ack=2 Win=64240 Len=0

Frame 3: 60 bytes on wire (480 bits), 60 bytes captured (480 bits) on interface 0
    Interface id: 0
    Encapsulation type: Ethernet (1)
    Arrival Time: Feb 24, 2026 12:29:31.100097000 Pacific Standard Time
    [Time shift for this packet: 0.000000000 seconds]
    Epoch Time: 1771964971.100097000 seconds
    [Time delta from previous captured frame: 0.000116000 seconds]
    [Time delta from previous displayed frame: 0.000116000 seconds]
    [Time since reference or first frame: 0.000589000 seconds]
    Frame Number: 3
    Frame Length: 60 bytes (480 bits)
    Capture Length: 60 bytes (480 bits)
    [Frame is marked: False]
    [Frame is ignored: False]
    [Protocols in frame: eth:ip:tcp]
    [Coloring Rule Name: HTTP]
    [Coloring Rule String: http || tcp.port == 80]
Ethernet II, Src: Vmware_16:97:b1 (00:0c:29:16:97:b1), Dst: Vmware_10:03:da (00:0c:29:10:03:da)
    Destination: Vmware_10:03:da (00:0c:29:10:03:da)
        Address: Vmware_10:03:da (00:0c:29:10:03:da)
        .... ..0. .... .... .... .... = LG bit: Globally unique address (factory default)
        .... ...0 .... .... .... .... = IG bit: Individual address (unicast)
    Source: Vmware_16:97:b1 (00:0c:29:16:97:b1)
        Address: Vmware_16:97:b1 (00:0c:29:16:97:b1)
        .... ..0. .... .... .... .... = LG bit: Globally unique address (factory default)
        .... ...0 .... .... .... .... = IG bit: Individual address (unicast)
    Type: IP (0x0800)
    Padding: 000000000000
Internet Protocol Version 4, Src: 192.168.1.147 (192.168.1.147), Dst: 192.168.1.158 (192.168.1.158)
    Version: 4
    Header length: 20 bytes
    Differentiated Services Field: 0x00 (DSCP 0x00: Default; ECN: 0x00: Not-ECT (Not ECN-Capable Transport))
        0000 00.. = Differentiated Services Codepoint: Default (0x00)
        .... ..00 = Explicit Congestion Notification: Not-ECT (Not ECN-Capable Transport) (0x00)
    Total Length: 40
    Identification: 0xd80b (55307)
    Flags: 0x02 (Don't Fragment)
        0... .... = Reserved bit: Not set
        .1.. .... = Don't fragment: Set
        ..0. .... = More fragments: Not set
    Fragment offset: 0
    Time to live: 128
    Protocol: TCP (6)
    Header checksum: 0x9e42 [validation disabled]
        [Good: False]
        [Bad: False]
    Source: 192.168.1.147 (192.168.1.147)
    Destination: 192.168.1.158 (192.168.1.158)
    [Source GeoIP: Unknown]
    [Destination GeoIP: Unknown]
Transmission Control Protocol, Src Port: http (80), Dst Port: editbench (1350), Seq: 1, Ack: 2, Len: 0
    Source port: http (80)
    Destination port: editbench (1350)
    [Stream index: 0]
    Sequence number: 1    (relative sequence number)
    Acknowledgment number: 2    (relative ack number)
    Header length: 20 bytes
    Flags: 0x011 (FIN, ACK)
        000. .... .... = Reserved: Not set
        ...0 .... .... = Nonce: Not set
        .... 0... .... = Congestion Window Reduced (CWR): Not set
        .... .0.. .... = ECN-Echo: Not set
        .... ..0. .... = Urgent: Not set
        .... ...1 .... = Acknowledgment: Set
        .... .... 0... = Push: Not set
        .... .... .0.. = Reset: Not set
        .... .... ..0. = Syn: Not set
        .... .... ...1 = Fin: Set
            [Expert Info (Chat/Sequence): Connection finish (FIN)]
                [Message: Connection finish (FIN)]
                [Severity level: Chat]
                [Group: Sequence]
    Window size value: 64240
    [Calculated window size: 64240]
    [Window size scaling factor: -1 (unknown)]
    Checksum: 0x7579 [validation disabled]
        [Good Checksum: False]
        [Bad Checksum: False]

0000  00 0c 29 10 03 da 00 0c 29 16 97 b1 08 00 45 00   ..).....).....E.
0010  00 28 d8 0b 40 00 80 06 9e 42 c0 a8 01 93 c0 a8   .(..@....B......
0020  01 9e 00 50 05 46 19 42 c5 5c ce 7b 08 37 50 11   ...P.F.B.\.{.7P.
0030  fa f0 75 79 00 00 00 00 00 00 00 00               ..uy........

No.     Time           Source                Destination           Protocol Length Info
      4 0.000596000    192.168.1.158         192.168.1.147         TCP      54     editbench > http [ACK] Seq=2 Ack=2 Win=63579 Len=0

Frame 4: 54 bytes on wire (432 bits), 54 bytes captured (432 bits) on interface 0
    Interface id: 0
    Encapsulation type: Ethernet (1)
    Arrival Time: Feb 24, 2026 12:29:31.100104000 Pacific Standard Time
    [Time shift for this packet: 0.000000000 seconds]
    Epoch Time: 1771964971.100104000 seconds
    [Time delta from previous captured frame: 0.000007000 seconds]
    [Time delta from previous displayed frame: 0.000007000 seconds]
    [Time since reference or first frame: 0.000596000 seconds]
    Frame Number: 4
    Frame Length: 54 bytes (432 bits)
    Capture Length: 54 bytes (432 bits)
    [Frame is marked: False]
    [Frame is ignored: False]
    [Protocols in frame: eth:ip:tcp]
    [Coloring Rule Name: HTTP]
    [Coloring Rule String: http || tcp.port == 80]
Ethernet II, Src: Vmware_10:03:da (00:0c:29:10:03:da), Dst: Vmware_16:97:b1 (00:0c:29:16:97:b1)
    Destination: Vmware_16:97:b1 (00:0c:29:16:97:b1)
        Address: Vmware_16:97:b1 (00:0c:29:16:97:b1)
        .... ..0. .... .... .... .... = LG bit: Globally unique address (factory default)
        .... ...0 .... .... .... .... = IG bit: Individual address (unicast)
    Source: Vmware_10:03:da (00:0c:29:10:03:da)
        Address: Vmware_10:03:da (00:0c:29:10:03:da)
        .... ..0. .... .... .... .... = LG bit: Globally unique address (factory default)
        .... ...0 .... .... .... .... = IG bit: Individual address (unicast)
    Type: IP (0x0800)
Internet Protocol Version 4, Src: 192.168.1.158 (192.168.1.158), Dst: 192.168.1.147 (192.168.1.147)
    Version: 4
    Header length: 20 bytes
    Differentiated Services Field: 0x00 (DSCP 0x00: Default; ECN: 0x00: Not-ECT (Not ECN-Capable Transport))
        0000 00.. = Differentiated Services Codepoint: Default (0x00)
        .... ..00 = Explicit Congestion Notification: Not-ECT (Not ECN-Capable Transport) (0x00)
    Total Length: 40
    Identification: 0x3dfd (15869)
    Flags: 0x02 (Don't Fragment)
        0... .... = Reserved bit: Not set
        .1.. .... = Don't fragment: Set
        ..0. .... = More fragments: Not set
    Fragment offset: 0
    Time to live: 128
    Protocol: TCP (6)
    Header checksum: 0x3851 [validation disabled]
        [Good: False]
        [Bad: False]
    Source: 192.168.1.158 (192.168.1.158)
    Destination: 192.168.1.147 (192.168.1.147)
    [Source GeoIP: Unknown]
    [Destination GeoIP: Unknown]
Transmission Control Protocol, Src Port: editbench (1350), Dst Port: http (80), Seq: 2, Ack: 2, Len: 0
    Source port: editbench (1350)
    Destination port: http (80)
    [Stream index: 0]
    Sequence number: 2    (relative sequence number)
    Acknowledgment number: 2    (relative ack number)
    Header length: 20 bytes
    Flags: 0x010 (ACK)
        000. .... .... = Reserved: Not set
        ...0 .... .... = Nonce: Not set
        .... 0... .... = Congestion Window Reduced (CWR): Not set
        .... .0.. .... = ECN-Echo: Not set
        .... ..0. .... = Urgent: Not set
        .... ...1 .... = Acknowledgment: Set
        .... .... 0... = Push: Not set
        .... .... .0.. = Reset: Not set
        .... .... ..0. = Syn: Not set
        .... .... ...0 = Fin: Not set
    Window size value: 63579
    [Calculated window size: 63579]
    [Window size scaling factor: -1 (unknown)]
    Checksum: 0x780e [validation disabled]
        [Good Checksum: False]
        [Bad Checksum: False]
    [SEQ/ACK analysis]
        [This is an ACK to the segment in frame: 3]
        [The RTT to ACK the segment was: 0.000007000 seconds]

0000  00 0c 29 16 97 b1 00 0c 29 10 03 da 08 00 45 00   ..).....).....E.
0010  00 28 3d fd 40 00 80 06 38 51 c0 a8 01 9e c0 a8   .(=.@...8Q......
0020  01 93 05 46 00 50 ce 7b 08 37 19 42 c5 5d 50 10   ...F.P.{.7.B.]P.
0030  f8 5b 78 0e 00 00                                 .[x...

No.     Time           Source                Destination           Protocol Length Info
      5 0.065076000    192.168.1.158         192.168.1.147         TCP      62     ibm-pps > rtsp [SYN] Seq=0 Win=64240 Len=0 MSS=1460 SACK_PERM=1

Frame 5: 62 bytes on wire (496 bits), 62 bytes captured (496 bits) on interface 0
    Interface id: 0
    Encapsulation type: Ethernet (1)
    Arrival Time: Feb 24, 2026 12:29:31.164584000 Pacific Standard Time
    [Time shift for this packet: 0.000000000 seconds]
    Epoch Time: 1771964971.164584000 seconds
    [Time delta from previous captured frame: 0.064480000 seconds]
    [Time delta from previous displayed frame: 0.064480000 seconds]
    [Time since reference or first frame: 0.065076000 seconds]
    Frame Number: 5
    Frame Length: 62 bytes (496 bits)
    Capture Length: 62 bytes (496 bits)
    [Frame is marked: False]
    [Frame is ignored: False]
    [Protocols in frame: eth:ip:tcp]
    [Coloring Rule Name: TCP SYN/FIN]
    [Coloring Rule String: tcp.flags & 0x02 || tcp.flags.fin == 1]
Ethernet II, Src: Vmware_10:03:da (00:0c:29:10:03:da), Dst: Vmware_16:97:b1 (00:0c:29:16:97:b1)
    Destination: Vmware_16:97:b1 (00:0c:29:16:97:b1)
        Address: Vmware_16:97:b1 (00:0c:29:16:97:b1)
        .... ..0. .... .... .... .... = LG bit: Globally unique address (factory default)
        .... ...0 .... .... .... .... = IG bit: Individual address (unicast)
    Source: Vmware_10:03:da (00:0c:29:10:03:da)
        Address: Vmware_10:03:da (00:0c:29:10:03:da)
        .... ..0. .... .... .... .... = LG bit: Globally unique address (factory default)
        .... ...0 .... .... .... .... = IG bit: Individual address (unicast)
    Type: IP (0x0800)
Internet Protocol Version 4, Src: 192.168.1.158 (192.168.1.158), Dst: 192.168.1.147 (192.168.1.147)
    Version: 4
    Header length: 20 bytes
    Differentiated Services Field: 0x00 (DSCP 0x00: Default; ECN: 0x00: Not-ECT (Not ECN-Capable Transport))
        0000 00.. = Differentiated Services Codepoint: Default (0x00)
        .... ..00 = Explicit Congestion Notification: Not-ECT (Not ECN-Capable Transport) (0x00)
    Total Length: 48
    Identification: 0x3dfe (15870)
    Flags: 0x02 (Don't Fragment)
        0... .... = Reserved bit: Not set
        .1.. .... = Don't fragment: Set
        ..0. .... = More fragments: Not set
    Fragment offset: 0
    Time to live: 128
    Protocol: TCP (6)
    Header checksum: 0x3848 [validation disabled]
        [Good: False]
        [Bad: False]
    Source: 192.168.1.158 (192.168.1.158)
    Destination: 192.168.1.147 (192.168.1.147)
    [Source GeoIP: Unknown]
    [Destination GeoIP: Unknown]
Transmission Control Protocol, Src Port: ibm-pps (1376), Dst Port: rtsp (554), Seq: 0, Len: 0
    Source port: ibm-pps (1376)
    Destination port: rtsp (554)
    [Stream index: 1]
    Sequence number: 0    (relative sequence number)
    Header length: 28 bytes
    Flags: 0x002 (SYN)
        000. .... .... = Reserved: Not set
        ...0 .... .... = Nonce: Not set
        .... 0... .... = Congestion Window Reduced (CWR): Not set
        .... .0.. .... = ECN-Echo: Not set
        .... ..0. .... = Urgent: Not set
        .... ...0 .... = Acknowledgment: Not set
        .... .... 0... = Push: Not set
        .... .... .0.. = Reset: Not set
        .... .... ..1. = Syn: Set
            [Expert Info (Chat/Sequence): Connection establish request (SYN): server port rtsp]
                [Message: Connection establish request (SYN): server port rtsp]
                [Severity level: Chat]
                [Group: Sequence]
        .... .... ...0 = Fin: Not set
    Window size value: 64240
    [Calculated window size: 64240]
    Checksum: 0xb3dd [validation disabled]
        [Good Checksum: False]
        [Bad Checksum: False]
    Options: (8 bytes), Maximum segment size, No-Operation (NOP), No-Operation (NOP), SACK permitted
        Maximum segment size: 1460 bytes
            Kind: MSS size (2)
            Length: 4
            MSS Value: 1460
        No-Operation (NOP)
            Type: 1
                0... .... = Copy on fragmentation: No
                .00. .... = Class: Control (0)
                ...0 0001 = Number: No-Operation (NOP) (1)
        No-Operation (NOP)
            Type: 1
                0... .... = Copy on fragmentation: No
                .00. .... = Class: Control (0)
                ...0 0001 = Number: No-Operation (NOP) (1)
        TCP SACK Permitted Option: True
            Kind: SACK Permission (4)
            Length: 2

0000  00 0c 29 16 97 b1 00 0c 29 10 03 da 08 00 45 00   ..).....).....E.
0010  00 30 3d fe 40 00 80 06 38 48 c0 a8 01 9e c0 a8   .0=.@...8H......
0020  01 93 05 60 02 2a ff 1d 49 27 00 00 00 00 70 02   ...`.*..I'....p.
0030  fa f0 b3 dd 00 00 02 04 05 b4 01 01 04 02         ..............

No.     Time           Source                Destination           Protocol Length Info
      6 0.065501000    192.168.1.147         192.168.1.158         TCP      62     rtsp > ibm-pps [SYN, ACK] Seq=0 Ack=1 Win=64240 Len=0 MSS=1460 SACK_PERM=1

Frame 6: 62 bytes on wire (496 bits), 62 bytes captured (496 bits) on interface 0
    Interface id: 0
    Encapsulation type: Ethernet (1)
    Arrival Time: Feb 24, 2026 12:29:31.165009000 Pacific Standard Time
    [Time shift for this packet: 0.000000000 seconds]
    Epoch Time: 1771964971.165009000 seconds
    [Time delta from previous captured frame: 0.000425000 seconds]
    [Time delta from previous displayed frame: 0.000425000 seconds]
    [Time since reference or first frame: 0.065501000 seconds]
    Frame Number: 6
    Frame Length: 62 bytes (496 bits)
    Capture Length: 62 bytes (496 bits)
    [Frame is marked: False]
    [Frame is ignored: False]
    [Protocols in frame: eth:ip:tcp]
    [Coloring Rule Name: TCP SYN/FIN]
    [Coloring Rule String: tcp.flags & 0x02 || tcp.flags.fin == 1]
Ethernet II, Src: Vmware_16:97:b1 (00:0c:29:16:97:b1), Dst: Vmware_10:03:da (00:0c:29:10:03:da)
    Destination: Vmware_10:03:da (00:0c:29:10:03:da)
        Address: Vmware_10:03:da (00:0c:29:10:03:da)
        .... ..0. .... .... .... .... = LG bit: Globally unique address (factory default)
        .... ...0 .... .... .... .... = IG bit: Individual address (unicast)
    Source: Vmware_16:97:b1 (00:0c:29:16:97:b1)
        Address: Vmware_16:97:b1 (00:0c:29:16:97:b1)
        .... ..0. .... .... .... .... = LG bit: Globally unique address (factory default)
        .... ...0 .... .... .... .... = IG bit: Individual address (unicast)
    Type: IP (0x0800)
Internet Protocol Version 4, Src: 192.168.1.147 (192.168.1.147), Dst: 192.168.1.158 (192.168.1.158)
    Version: 4
    Header length: 20 bytes
    Differentiated Services Field: 0x00 (DSCP 0x00: Default; ECN: 0x00: Not-ECT (Not ECN-Capable Transport))
        0000 00.. = Differentiated Services Codepoint: Default (0x00)
        .... ..00 = Explicit Congestion Notification: Not-ECT (Not ECN-Capable Transport) (0x00)
    Total Length: 48
    Identification: 0xd80c (55308)
    Flags: 0x02 (Don't Fragment)
        0... .... = Reserved bit: Not set
        .1.. .... = Don't fragment: Set
        ..0. .... = More fragments: Not set
    Fragment offset: 0
    Time to live: 128
    Protocol: TCP (6)
    Header checksum: 0x9e39 [validation disabled]
        [Good: False]
        [Bad: False]
    Source: 192.168.1.147 (192.168.1.147)
    Destination: 192.168.1.158 (192.168.1.158)
    [Source GeoIP: Unknown]
    [Destination GeoIP: Unknown]
Transmission Control Protocol, Src Port: rtsp (554), Dst Port: ibm-pps (1376), Seq: 0, Ack: 1, Len: 0
    Source port: rtsp (554)
    Destination port: ibm-pps (1376)
    [Stream index: 1]
    Sequence number: 0    (relative sequence number)
    Acknowledgment number: 1    (relative ack number)
    Header length: 28 bytes
    Flags: 0x012 (SYN, ACK)
        000. .... .... = Reserved: Not set
        ...0 .... .... = Nonce: Not set
        .... 0... .... = Congestion Window Reduced (CWR): Not set
        .... .0.. .... = ECN-Echo: Not set
        .... ..0. .... = Urgent: Not set
        .... ...1 .... = Acknowledgment: Set
        .... .... 0... = Push: Not set
        .... .... .0.. = Reset: Not set
        .... .... ..1. = Syn: Set
            [Expert Info (Chat/Sequence): Connection establish acknowledge (SYN+ACK): server port rtsp]
                [Message: Connection establish acknowledge (SYN+ACK): server port rtsp]
                [Severity level: Chat]
                [Group: Sequence]
        .... .... ...0 = Fin: Not set
    Window size value: 64240
    [Calculated window size: 64240]
    Checksum: 0xeaaf [validation disabled]
        [Good Checksum: False]
        [Bad Checksum: False]
    Options: (8 bytes), Maximum segment size, No-Operation (NOP), No-Operation (NOP), SACK permitted
        Maximum segment size: 1460 bytes
            Kind: MSS size (2)
            Length: 4
            MSS Value: 1460
        No-Operation (NOP)
            Type: 1
                0... .... = Copy on fragmentation: No
                .00. .... = Class: Control (0)
                ...0 0001 = Number: No-Operation (NOP) (1)
        No-Operation (NOP)
            Type: 1
                0... .... = Copy on fragmentation: No
                .00. .... = Class: Control (0)
                ...0 0001 = Number: No-Operation (NOP) (1)
        TCP SACK Permitted Option: True
            Kind: SACK Permission (4)
            Length: 2
    [SEQ/ACK analysis]
        [This is an ACK to the segment in frame: 5]
        [The RTT to ACK the segment was: 0.000425000 seconds]

0000  00 0c 29 10 03 da 00 0c 29 16 97 b1 08 00 45 00   ..).....).....E.
0010  00 30 d8 0c 40 00 80 06 9e 39 c0 a8 01 93 c0 a8   .0..@....9......
0020  01 9e 02 2a 05 60 9f 1a 2a 02 ff 1d 49 28 70 12   ...*.`..*...I(p.
0030  fa f0 ea af 00 00 02 04 05 b4 01 01 04 02         ..............

No.     Time           Source                Destination           Protocol Length Info
      7 0.065545000    192.168.1.158         192.168.1.147         TCP      54     ibm-pps > rtsp [ACK] Seq=1 Ack=1 Win=64240 Len=0

Frame 7: 54 bytes on wire (432 bits), 54 bytes captured (432 bits) on interface 0
    Interface id: 0
    Encapsulation type: Ethernet (1)
    Arrival Time: Feb 24, 2026 12:29:31.165053000 Pacific Standard Time
    [Time shift for this packet: 0.000000000 seconds]
    Epoch Time: 1771964971.165053000 seconds
    [Time delta from previous captured frame: 0.000044000 seconds]
    [Time delta from previous displayed frame: 0.000044000 seconds]
    [Time since reference or first frame: 0.065545000 seconds]
    Frame Number: 7
    Frame Length: 54 bytes (432 bits)
    Capture Length: 54 bytes (432 bits)
    [Frame is marked: False]
    [Frame is ignored: False]
    [Protocols in frame: eth:ip:tcp]
    [Coloring Rule Name: TCP]
    [Coloring Rule String: tcp]
Ethernet II, Src: Vmware_10:03:da (00:0c:29:10:03:da), Dst: Vmware_16:97:b1 (00:0c:29:16:97:b1)
    Destination: Vmware_16:97:b1 (00:0c:29:16:97:b1)
        Address: Vmware_16:97:b1 (00:0c:29:16:97:b1)
        .... ..0. .... .... .... .... = LG bit: Globally unique address (factory default)
        .... ...0 .... .... .... .... = IG bit: Individual address (unicast)
    Source: Vmware_10:03:da (00:0c:29:10:03:da)
        Address: Vmware_10:03:da (00:0c:29:10:03:da)
        .... ..0. .... .... .... .... = LG bit: Globally unique address (factory default)
        .... ...0 .... .... .... .... = IG bit: Individual address (unicast)
    Type: IP (0x0800)
Internet Protocol Version 4, Src: 192.168.1.158 (192.168.1.158), Dst: 192.168.1.147 (192.168.1.147)
    Version: 4
    Header length: 20 bytes
    Differentiated Services Field: 0x00 (DSCP 0x00: Default; ECN: 0x00: Not-ECT (Not ECN-Capable Transport))
        0000 00.. = Differentiated Services Codepoint: Default (0x00)
        .... ..00 = Explicit Congestion Notification: Not-ECT (Not ECN-Capable Transport) (0x00)
    Total Length: 40
    Identification: 0x3dff (15871)
    Flags: 0x02 (Don't Fragment)
        0... .... = Reserved bit: Not set
        .1.. .... = Don't fragment: Set
        ..0. .... = More fragments: Not set
    Fragment offset: 0
    Time to live: 128
    Protocol: TCP (6)
    Header checksum: 0x384f [validation disabled]
        [Good: False]
        [Bad: False]
    Source: 192.168.1.158 (192.168.1.158)
    Destination: 192.168.1.147 (192.168.1.147)
    [Source GeoIP: Unknown]
    [Destination GeoIP: Unknown]
Transmission Control Protocol, Src Port: ibm-pps (1376), Dst Port: rtsp (554), Seq: 1, Ack: 1, Len: 0
    Source port: ibm-pps (1376)
    Destination port: rtsp (554)
    [Stream index: 1]
    Sequence number: 1    (relative sequence number)
    Acknowledgment number: 1    (relative ack number)
    Header length: 20 bytes
    Flags: 0x010 (ACK)
        000. .... .... = Reserved: Not set
        ...0 .... .... = Nonce: Not set
        .... 0... .... = Congestion Window Reduced (CWR): Not set
        .... .0.. .... = ECN-Echo: Not set
        .... ..0. .... = Urgent: Not set
        .... ...1 .... = Acknowledgment: Set
        .... .... 0... = Push: Not set
        .... .... .0.. = Reset: Not set
        .... .... ..0. = Syn: Not set
        .... .... ...0 = Fin: Not set
    Window size value: 64240
    [Calculated window size: 64240]
    [Window size scaling factor: -2 (no window scaling used)]
    Checksum: 0x1774 [validation disabled]
        [Good Checksum: False]
        [Bad Checksum: False]
    [SEQ/ACK analysis]
        [This is an ACK to the segment in frame: 6]
        [The RTT to ACK the segment was: 0.000044000 seconds]

0000  00 0c 29 16 97 b1 00 0c 29 10 03 da 08 00 45 00   ..).....).....E.
0010  00 28 3d ff 40 00 80 06 38 4f c0 a8 01 9e c0 a8   .(=.@...8O......
0020  01 93 05 60 02 2a ff 1d 49 28 9f 1a 2a 03 50 10   ...`.*..I(..*.P.
0030  fa f0 17 74 00 00                                 ...t..

No.     Time           Source                Destination           Protocol Length Info
      8 0.066026000    192.168.1.158         192.168.1.147         RTSP     448    DESCRIBE rtsp://192.168.1.147/test RTSP/1.0

Frame 8: 448 bytes on wire (3584 bits), 448 bytes captured (3584 bits) on interface 0
    Interface id: 0
    Encapsulation type: Ethernet (1)
    Arrival Time: Feb 24, 2026 12:29:31.165534000 Pacific Standard Time
    [Time shift for this packet: 0.000000000 seconds]
    Epoch Time: 1771964971.165534000 seconds
    [Time delta from previous captured frame: 0.000481000 seconds]
    [Time delta from previous displayed frame: 0.000481000 seconds]
    [Time since reference or first frame: 0.066026000 seconds]
    Frame Number: 8
    Frame Length: 448 bytes (3584 bits)
    Capture Length: 448 bytes (3584 bits)
    [Frame is marked: False]
    [Frame is ignored: False]
    [Protocols in frame: eth:ip:tcp:rtsp]
    [Coloring Rule Name: TCP]
    [Coloring Rule String: tcp]
Ethernet II, Src: Vmware_10:03:da (00:0c:29:10:03:da), Dst: Vmware_16:97:b1 (00:0c:29:16:97:b1)
    Destination: Vmware_16:97:b1 (00:0c:29:16:97:b1)
        Address: Vmware_16:97:b1 (00:0c:29:16:97:b1)
        .... ..0. .... .... .... .... = LG bit: Globally unique address (factory default)
        .... ...0 .... .... .... .... = IG bit: Individual address (unicast)
    Source: Vmware_10:03:da (00:0c:29:10:03:da)
        Address: Vmware_10:03:da (00:0c:29:10:03:da)
        .... ..0. .... .... .... .... = LG bit: Globally unique address (factory default)
        .... ...0 .... .... .... .... = IG bit: Individual address (unicast)
    Type: IP (0x0800)
Internet Protocol Version 4, Src: 192.168.1.158 (192.168.1.158), Dst: 192.168.1.147 (192.168.1.147)
    Version: 4
    Header length: 20 bytes
    Differentiated Services Field: 0x00 (DSCP 0x00: Default; ECN: 0x00: Not-ECT (Not ECN-Capable Transport))
        0000 00.. = Differentiated Services Codepoint: Default (0x00)
        .... ..00 = Explicit Congestion Notification: Not-ECT (Not ECN-Capable Transport) (0x00)
    Total Length: 434
    Identification: 0x3e00 (15872)
    Flags: 0x02 (Don't Fragment)
        0... .... = Reserved bit: Not set
        .1.. .... = Don't fragment: Set
        ..0. .... = More fragments: Not set
    Fragment offset: 0
    Time to live: 128
    Protocol: TCP (6)
    Header checksum: 0x36c4 [validation disabled]
        [Good: False]
        [Bad: False]
    Source: 192.168.1.158 (192.168.1.158)
    Destination: 192.168.1.147 (192.168.1.147)
    [Source GeoIP: Unknown]
    [Destination GeoIP: Unknown]
Transmission Control Protocol, Src Port: ibm-pps (1376), Dst Port: rtsp (554), Seq: 1, Ack: 1, Len: 394
    Source port: ibm-pps (1376)
    Destination port: rtsp (554)
    [Stream index: 1]
    Sequence number: 1    (relative sequence number)
    [Next sequence number: 395    (relative sequence number)]
    Acknowledgment number: 1    (relative ack number)
    Header length: 20 bytes
    Flags: 0x018 (PSH, ACK)
        000. .... .... = Reserved: Not set
        ...0 .... .... = Nonce: Not set
        .... 0... .... = Congestion Window Reduced (CWR): Not set
        .... .0.. .... = ECN-Echo: Not set
        .... ..0. .... = Urgent: Not set
        .... ...1 .... = Acknowledgment: Set
        .... .... 1... = Push: Set
        .... .... .0.. = Reset: Not set
        .... .... ..0. = Syn: Not set
        .... .... ...0 = Fin: Not set
    Window size value: 64240
    [Calculated window size: 64240]
    [Window size scaling factor: -2 (no window scaling used)]
    Checksum: 0xf092 [validation disabled]
        [Good Checksum: False]
        [Bad Checksum: False]
    [SEQ/ACK analysis]
        [Bytes in flight: 394]
Real Time Streaming Protocol
    Request: DESCRIBE rtsp://192.168.1.147/test RTSP/1.0\r\n
        Method: DESCRIBE
        URL: rtsp://192.168.1.147/test
    User-Agent: WMPlayer/9.0.0.4503 guid/3300AD50-2C39-46C0-AE0A-3C953D61953A\r\n
    Accept: application/sdp\r\n
    Accept-Charset: UTF-8, *;q=0.1\r\n
    X-Accept-Authentication: Negotiate, NTLM, Digest, Basic\r\n
    Accept-Language: en-US, *;q=0.1\r\n
    CSeq: 1\r\n
    Supported: com.microsoft.wm.srvppair, com.microsoft.wm.sswitch, com.microsoft.wm.eosmsg, com.microsoft.wm.predstrm\r\n
    \r\n

0000  00 0c 29 16 97 b1 00 0c 29 10 03 da 08 00 45 00   ..).....).....E.
0010  01 b2 3e 00 40 00 80 06 36 c4 c0 a8 01 9e c0 a8   ..>.@...6.......
0020  01 93 05 60 02 2a ff 1d 49 28 9f 1a 2a 03 50 18   ...`.*..I(..*.P.
0030  fa f0 f0 92 00 00 44 45 53 43 52 49 42 45 20 72   ......DESCRIBE r
0040  74 73 70 3a 2f 2f 31 39 32 2e 31 36 38 2e 31 2e   tsp://192.168.1.
0050  31 34 37 2f 74 65 73 74 20 52 54 53 50 2f 31 2e   147/test RTSP/1.
0060  30 0d 0a 55 73 65 72 2d 41 67 65 6e 74 3a 20 57   0..User-Agent: W
0070  4d 50 6c 61 79 65 72 2f 39 2e 30 2e 30 2e 34 35   MPlayer/9.0.0.45
0080  30 33 20 67 75 69 64 2f 33 33 30 30 41 44 35 30   03 guid/3300AD50
0090  2d 32 43 33 39 2d 34 36 43 30 2d 41 45 30 41 2d   -2C39-46C0-AE0A-
00a0  33 43 39 35 33 44 36 31 39 35 33 41 0d 0a 41 63   3C953D61953A..Ac
00b0  63 65 70 74 3a 20 61 70 70 6c 69 63 61 74 69 6f   cept: applicatio
00c0  6e 2f 73 64 70 0d 0a 41 63 63 65 70 74 2d 43 68   n/sdp..Accept-Ch
00d0  61 72 73 65 74 3a 20 55 54 46 2d 38 2c 20 2a 3b   arset: UTF-8, *;
00e0  71 3d 30 2e 31 0d 0a 58 2d 41 63 63 65 70 74 2d   q=0.1..X-Accept-
00f0  41 75 74 68 65 6e 74 69 63 61 74 69 6f 6e 3a 20   Authentication: 
0100  4e 65 67 6f 74 69 61 74 65 2c 20 4e 54 4c 4d 2c   Negotiate, NTLM,
0110  20 44 69 67 65 73 74 2c 20 42 61 73 69 63 0d 0a    Digest, Basic..
0120  41 63 63 65 70 74 2d 4c 61 6e 67 75 61 67 65 3a   Accept-Language:
0130  20 65 6e 2d 55 53 2c 20 2a 3b 71 3d 30 2e 31 0d    en-US, *;q=0.1.
0140  0a 43 53 65 71 3a 20 31 0d 0a 53 75 70 70 6f 72   .CSeq: 1..Suppor
0150  74 65 64 3a 20 63 6f 6d 2e 6d 69 63 72 6f 73 6f   ted: com.microso
0160  66 74 2e 77 6d 2e 73 72 76 70 70 61 69 72 2c 20   ft.wm.srvppair, 
0170  63 6f 6d 2e 6d 69 63 72 6f 73 6f 66 74 2e 77 6d   com.microsoft.wm
0180  2e 73 73 77 69 74 63 68 2c 20 63 6f 6d 2e 6d 69   .sswitch, com.mi
0190  63 72 6f 73 6f 66 74 2e 77 6d 2e 65 6f 73 6d 73   crosoft.wm.eosms
01a0  67 2c 20 63 6f 6d 2e 6d 69 63 72 6f 73 6f 66 74   g, com.microsoft
01b0  2e 77 6d 2e 70 72 65 64 73 74 72 6d 0d 0a 0d 0a   .wm.predstrm....

No.     Time           Source                Destination           Protocol Length Info
      9 0.068556000    192.168.1.147         192.168.1.158         TCP      1514   [TCP segment of a reassembled PDU]

Frame 9: 1514 bytes on wire (12112 bits), 1514 bytes captured (12112 bits) on interface 0
    Interface id: 0
    Encapsulation type: Ethernet (1)
    Arrival Time: Feb 24, 2026 12:29:31.168064000 Pacific Standard Time
    [Time shift for this packet: 0.000000000 seconds]
    Epoch Time: 1771964971.168064000 seconds
    [Time delta from previous captured frame: 0.002530000 seconds]
    [Time delta from previous displayed frame: 0.002530000 seconds]
    [Time since reference or first frame: 0.068556000 seconds]
    Frame Number: 9
    Frame Length: 1514 bytes (12112 bits)
    Capture Length: 1514 bytes (12112 bits)
    [Frame is marked: False]
    [Frame is ignored: False]
    [Protocols in frame: eth:ip:tcp]
    [Coloring Rule Name: TCP]
    [Coloring Rule String: tcp]
Ethernet II, Src: Vmware_16:97:b1 (00:0c:29:16:97:b1), Dst: Vmware_10:03:da (00:0c:29:10:03:da)
    Destination: Vmware_10:03:da (00:0c:29:10:03:da)
        Address: Vmware_10:03:da (00:0c:29:10:03:da)
        .... ..0. .... .... .... .... = LG bit: Globally unique address (factory default)
        .... ...0 .... .... .... .... = IG bit: Individual address (unicast)
    Source: Vmware_16:97:b1 (00:0c:29:16:97:b1)
        Address: Vmware_16:97:b1 (00:0c:29:16:97:b1)
        .... ..0. .... .... .... .... = LG bit: Globally unique address (factory default)
        .... ...0 .... .... .... .... = IG bit: Individual address (unicast)
    Type: IP (0x0800)
Internet Protocol Version 4, Src: 192.168.1.147 (192.168.1.147), Dst: 192.168.1.158 (192.168.1.158)
    Version: 4
    Header length: 20 bytes
    Differentiated Services Field: 0x00 (DSCP 0x00: Default; ECN: 0x00: Not-ECT (Not ECN-Capable Transport))
        0000 00.. = Differentiated Services Codepoint: Default (0x00)
        .... ..00 = Explicit Congestion Notification: Not-ECT (Not ECN-Capable Transport) (0x00)
    Total Length: 1500
    Identification: 0xd80d (55309)
    Flags: 0x02 (Don't Fragment)
        0... .... = Reserved bit: Not set
        .1.. .... = Don't fragment: Set
        ..0. .... = More fragments: Not set
    Fragment offset: 0
    Time to live: 128
    Protocol: TCP (6)
    Header checksum: 0x988c [validation disabled]
        [Good: False]
        [Bad: False]
    Source: 192.168.1.147 (192.168.1.147)
    Destination: 192.168.1.158 (192.168.1.158)
    [Source GeoIP: Unknown]
    [Destination GeoIP: Unknown]
Transmission Control Protocol, Src Port: rtsp (554), Dst Port: ibm-pps (1376), Seq: 1, Ack: 395, Len: 1460
    Source port: rtsp (554)
    Destination port: ibm-pps (1376)
    [Stream index: 1]
    Sequence number: 1    (relative sequence number)
    [Next sequence number: 1461    (relative sequence number)]
    Acknowledgment number: 395    (relative ack number)
    Header length: 20 bytes
    Flags: 0x010 (ACK)
        000. .... .... = Reserved: Not set
        ...0 .... .... = Nonce: Not set
        .... 0... .... = Congestion Window Reduced (CWR): Not set
        .... .0.. .... = ECN-Echo: Not set
        .... ..0. .... = Urgent: Not set
        .... ...1 .... = Acknowledgment: Set
        .... .... 0... = Push: Not set
        .... .... .0.. = Reset: Not set
        .... .... ..0. = Syn: Not set
        .... .... ...0 = Fin: Not set
    Window size value: 63846
    [Calculated window size: 63846]
    [Window size scaling factor: -2 (no window scaling used)]
    Checksum: 0xc0a5 [validation disabled]
        [Good Checksum: False]
        [Bad Checksum: False]
    [SEQ/ACK analysis]
        [This is an ACK to the segment in frame: 8]
        [The RTT to ACK the segment was: 0.002530000 seconds]
        [Bytes in flight: 1460]
    TCP segment data (1460 bytes)

0000  00 0c 29 10 03 da 00 0c 29 16 97 b1 08 00 45 00   ..).....).....E.
0010  05 dc d8 0d 40 00 80 06 98 8c c0 a8 01 93 c0 a8   ....@...........
0020  01 9e 02 2a 05 60 9f 1a 2a 03 ff 1d 4a b2 50 10   ...*.`..*...J.P.
0030  f9 66 c0 a5 00 00 52 54 53 50 2f 31 2e 30 20 32   .f....RTSP/1.0 2
0040  30 30 20 4f 4b 0d 0a 43 6f 6e 74 65 6e 74 2d 54   00 OK..Content-T
0050  79 70 65 3a 20 61 70 70 6c 69 63 61 74 69 6f 6e   ype: application
0060  2f 73 64 70 0d 0a 56 61 72 79 3a 20 41 63 63 65   /sdp..Vary: Acce
0070  70 74 0d 0a 58 2d 50 6c 61 79 6c 69 73 74 2d 47   pt..X-Playlist-G
0080  65 6e 2d 49 64 3a 20 33 32 0d 0a 58 2d 42 72 6f   en-Id: 32..X-Bro
0090  61 64 63 61 73 74 2d 49 64 3a 20 39 0d 0a 43 6f   adcast-Id: 9..Co
00a0  6e 74 65 6e 74 2d 4c 65 6e 67 74 68 3a 20 35 31   ntent-Length: 51
00b0  35 33 0d 0a 44 61 74 65 3a 20 54 75 65 2c 20 32   53..Date: Tue, 2
00c0  34 20 46 65 62 20 32 30 32 36 20 32 30 3a 32 39   4 Feb 2026 20:29
00d0  3a 34 34 20 47 4d 54 0d 0a 43 53 65 71 3a 20 31   :44 GMT..CSeq: 1
00e0  0d 0a 53 65 72 76 65 72 3a 20 57 4d 53 65 72 76   ..Server: WMServ
00f0  65 72 2f 39 2e 30 2e 30 2e 33 33 37 32 0d 0a 53   er/9.0.0.3372..S
0100  75 70 70 6f 72 74 65 64 3a 20 63 6f 6d 2e 6d 69   upported: com.mi
0110  63 72 6f 73 6f 66 74 2e 77 6d 2e 73 72 76 70 70   crosoft.wm.srvpp
0120  61 69 72 2c 20 63 6f 6d 2e 6d 69 63 72 6f 73 6f   air, com.microso
0130  66 74 2e 77 6d 2e 73 73 77 69 74 63 68 2c 20 63   ft.wm.sswitch, c
0140  6f 6d 2e 6d 69 63 72 6f 73 6f 66 74 2e 77 6d 2e   om.microsoft.wm.
0150  65 6f 73 6d 73 67 2c 20 63 6f 6d 2e 6d 69 63 72   eosmsg, com.micr
0160  6f 73 6f 66 74 2e 77 6d 2e 66 61 73 74 63 61 63   osoft.wm.fastcac
0170  68 65 2c 20 63 6f 6d 2e 6d 69 63 72 6f 73 6f 66   he, com.microsof
0180  74 2e 77 6d 2e 70 61 63 6b 65 74 70 61 69 72 73   t.wm.packetpairs
0190  73 72 63 0d 0a 4c 61 73 74 2d 4d 6f 64 69 66 69   src..Last-Modifi
01a0  65 64 3a 20 54 75 65 2c 20 32 34 20 46 65 62 20   ed: Tue, 24 Feb 
01b0  32 30 32 36 20 32 30 3a 32 39 3a 34 34 20 47 4d   2026 20:29:44 GM
01c0  54 0d 0a 43 61 63 68 65 2d 43 6f 6e 74 72 6f 6c   T..Cache-Control
01d0  3a 20 6d 61 78 2d 61 67 65 3d 30 2c 20 78 2d 77   : max-age=0, x-w
01e0  6d 73 2d 73 74 72 65 61 6d 2d 74 79 70 65 3d 22   ms-stream-type="
01f0  62 72 6f 61 64 63 61 73 74 22 2c 20 6d 75 73 74   broadcast", must
0200  2d 72 65 76 61 6c 69 64 61 74 65 2c 20 70 72 69   -revalidate, pri
0210  76 61 74 65 2c 20 78 2d 77 6d 73 2d 70 72 6f 78   vate, x-wms-prox
0220  79 2d 73 70 6c 69 74 0d 0a 0d 0a 76 3d 30 0d 0a   y-split....v=0..
0230  6f 3d 2d 20 32 30 32 36 30 32 32 34 32 30 32 39   o=- 202602242029
0240  34 34 30 39 30 36 20 32 30 32 36 30 32 32 34 32   440906 202602242
0250  30 32 39 34 34 30 39 30 36 20 49 4e 20 49 50 34   029440906 IN IP4
0260  20 31 32 37 2e 30 2e 30 2e 31 0d 0a 73 3d 53 74    127.0.0.1..s=St
0270  61 74 69 63 5f 54 69 74 6c 65 0d 0a 63 3d 49 4e   atic_Title..c=IN
0280  20 49 50 34 20 30 2e 30 2e 30 2e 30 0d 0a 62 3d    IP4 0.0.0.0..b=
0290  41 53 3a 37 37 0d 0a 61 3d 6d 61 78 70 73 3a 32   AS:77..a=maxps:2
02a0  37 36 32 0d 0a 74 3d 30 20 30 0d 0a 61 3d 63 6f   762..t=0 0..a=co
02b0  6e 74 72 6f 6c 3a 72 74 73 70 3a 2f 2f 31 39 32   ntrol:rtsp://192
02c0  2e 31 36 38 2e 31 2e 31 34 37 2f 74 65 73 74 2f   .168.1.147/test/
02d0  0d 0a 61 3d 65 74 61 67 3a 7b 35 35 33 37 43 45   ..a=etag:{5537CE
02e0  33 38 2d 39 34 36 33 2d 36 45 42 35 2d 38 33 38   38-9463-6EB5-838
02f0  41 2d 35 33 45 32 46 37 33 32 43 34 35 30 7d 0d   A-53E2F732C450}.
0300  0a 61 3d 72 61 6e 67 65 3a 6e 70 74 3d 33 2e 30   .a=range:npt=3.0
0310  30 30 2d 33 2e 30 30 30 0d 0a 61 3d 74 79 70 65   00-3.000..a=type
0320  3a 62 72 6f 61 64 63 61 73 74 0d 0a 61 3d 72 65   :broadcast..a=re
0330  63 76 6f 6e 6c 79 0d 0a 61 3d 70 67 6d 70 75 3a   cvonly..a=pgmpu:
0340  64 61 74 61 3a 61 70 70 6c 69 63 61 74 69 6f 6e   data:application
0350  2f 78 2d 77 6d 73 2d 63 6f 6e 74 65 6e 74 64 65   /x-wms-contentde
0360  73 63 2c 38 2c 6c 61 6e 67 75 61 67 65 2c 33 31   sc,8,language,31
0370  2c 30 2c 2c 34 34 2c 57 4d 53 5f 43 4f 4e 54 45   ,0,,44,WMS_CONTE
0380  4e 54 5f 44 45 53 43 52 49 50 54 49 4f 4e 5f 53   NT_DESCRIPTION_S
0390  45 52 56 45 52 5f 42 52 41 4e 44 49 4e 47 5f 49   ERVER_BRANDING_I
03a0  4e 46 4f 2c 33 31 2c 31 32 2c 57 4d 53 65 72 76   NFO,31,12,WMServ
03b0  65 72 2f 39 2e 30 2c 33 35 2c 57 4d 53 5f 43 4f   er/9.0,35,WMS_CO
03c0  4e 54 45 4e 54 5f 44 45 53 43 52 49 50 54 49 4f   NTENT_DESCRIPTIO
03d0  4e 5f 44 45 53 43 52 49 50 54 49 4f 4e 2c 33 31   N_DESCRIPTION,31
03e0  2c 31 31 2c 53 74 61 74 69 63 5f 44 65 73 63 2c   ,11,Static_Desc,
03f0  39 2c 63 6f 70 79 72 69 67 68 74 2c 33 31 2c 31   9,copyright,31,1
0400  36 2c 53 74 61 74 69 63 5f 43 6f 70 79 72 69 67   6,Static_Copyrig
0410  68 74 2c 36 2c 61 75 74 68 6f 72 2c 33 31 2c 31   ht,6,author,31,1
0420  33 2c 53 74 61 74 69 63 5f 41 75 74 68 6f 72 2c   3,Static_Author,
0430  35 2c 74 69 74 6c 65 2c 33 31 2c 31 32 2c 53 74   5,title,31,12,St
0440  61 74 69 63 5f 54 69 74 6c 65 2c 35 31 2c 57 4d   atic_Title,51,WM
0450  53 5f 43 4f 4e 54 45 4e 54 5f 44 45 53 43 52 49   S_CONTENT_DESCRI
0460  50 54 49 4f 4e 5f 50 4c 41 59 4c 49 53 54 5f 45   PTION_PLAYLIST_E
0470  4e 54 52 59 5f 53 54 41 52 54 5f 4f 46 46 53 45   NTRY_START_OFFSE
0480  54 2c 33 2c 34 2c 33 30 30 30 2c 34 37 2c 57 4d   T,3,4,3000,47,WM
0490  53 5f 43 4f 4e 54 45 4e 54 5f 44 45 53 43 52 49   S_CONTENT_DESCRI
04a0  50 54 49 4f 4e 5f 50 4c 41 59 4c 49 53 54 5f 45   PTION_PLAYLIST_E
04b0  4e 54 52 59 5f 44 55 52 41 54 49 4f 4e 2c 33 2c   NTRY_DURATION,3,
04c0  31 2c 30 2c 35 38 2c 57 4d 53 5f 43 4f 4e 54 45   1,0,58,WMS_CONTE
04d0  4e 54 5f 44 45 53 43 52 49 50 54 49 4f 4e 5f 43   NT_DESCRIPTION_C
04e0  4f 50 49 45 44 5f 4d 45 54 41 44 41 54 41 5f 46   OPIED_METADATA_F
04f0  52 4f 4d 5f 50 4c 41 59 4c 49 53 54 5f 46 49 4c   ROM_PLAYLIST_FIL
0500  45 2c 33 2c 31 2c 31 2c 34 32 2c 57 4d 53 5f 43   E,3,1,1,42,WMS_C
0510  4f 4e 54 45 4e 54 5f 44 45 53 43 52 49 50 54 49   ONTENT_DESCRIPTI
0520  4f 4e 5f 50 4c 41 59 4c 49 53 54 5f 45 4e 54 52   ON_PLAYLIST_ENTR
0530  59 5f 55 52 4c 2c 33 31 2c 36 2c 50 75 73 68 3a   Y_URL,31,6,Push:
0540  2a 25 30 44 25 30 41 0d 0a 61 3d 70 67 6d 70 75   *%0D%0A..a=pgmpu
0550  3a 64 61 74 61 3a 61 70 70 6c 69 63 61 74 69 6f   :data:applicatio
0560  6e 2f 76 6e 64 2e 6d 73 2e 77 6d 73 2d 68 64 72   n/vnd.ms.wms-hdr
0570  2e 61 73 66 76 31 3b 62 61 73 65 36 34 2c 4d 43   .asfv1;base64,MC
0580  61 79 64 59 35 6d 7a 78 47 6d 32 51 43 71 41 47   aydY5mzxGm2QCqAG
0590  4c 4f 62 47 63 4c 41 41 41 41 41 41 41 41 43 41   LObGcLAAAAAAAACA
05a0  41 41 41 41 45 43 51 4b 54 51 30 67 66 6a 30 68   AAAAECQKTQ0gfj0h
05b0  47 58 38 41 43 67 79 56 36 6f 55 4f 67 41 41 41   GX8ACgyV6oUOgAAA
05c0  41 41 41 41 41 41 42 41 41 6b 41 46 63 41 54 51   AAAAAABAAkAFcATQ
05d0  41 76 41 46 41 41 59 51 42 79 41 47 55 41 62 67   AvAFAAYQByAGUAbg
05e0  42 30 41 47 45 41 62 41 42 53                     B0AGEAbABS

No.     Time           Source                Destination           Protocol Length Info
     10 0.068572000    192.168.1.147         192.168.1.158         TCP      1514   [TCP segment of a reassembled PDU]

Frame 10: 1514 bytes on wire (12112 bits), 1514 bytes captured (12112 bits) on interface 0
    Interface id: 0
    Encapsulation type: Ethernet (1)
    Arrival Time: Feb 24, 2026 12:29:31.168080000 Pacific Standard Time
    [Time shift for this packet: 0.000000000 seconds]
    Epoch Time: 1771964971.168080000 seconds
    [Time delta from previous captured frame: 0.000016000 seconds]
    [Time delta from previous displayed frame: 0.000016000 seconds]
    [Time since reference or first frame: 0.068572000 seconds]
    Frame Number: 10
    Frame Length: 1514 bytes (12112 bits)
    Capture Length: 1514 bytes (12112 bits)
    [Frame is marked: False]
    [Frame is ignored: False]
    [Protocols in frame: eth:ip:tcp]
    [Coloring Rule Name: TCP]
    [Coloring Rule String: tcp]
Ethernet II, Src: Vmware_16:97:b1 (00:0c:29:16:97:b1), Dst: Vmware_10:03:da (00:0c:29:10:03:da)
    Destination: Vmware_10:03:da (00:0c:29:10:03:da)
        Address: Vmware_10:03:da (00:0c:29:10:03:da)
        .... ..0. .... .... .... .... = LG bit: Globally unique address (factory default)
        .... ...0 .... .... .... .... = IG bit: Individual address (unicast)
    Source: Vmware_16:97:b1 (00:0c:29:16:97:b1)
        Address: Vmware_16:97:b1 (00:0c:29:16:97:b1)
        .... ..0. .... .... .... .... = LG bit: Globally unique address (factory default)
        .... ...0 .... .... .... .... = IG bit: Individual address (unicast)
    Type: IP (0x0800)
Internet Protocol Version 4, Src: 192.168.1.147 (192.168.1.147), Dst: 192.168.1.158 (192.168.1.158)
    Version: 4
    Header length: 20 bytes
    Differentiated Services Field: 0x00 (DSCP 0x00: Default; ECN: 0x00: Not-ECT (Not ECN-Capable Transport))
        0000 00.. = Differentiated Services Codepoint: Default (0x00)
        .... ..00 = Explicit Congestion Notification: Not-ECT (Not ECN-Capable Transport) (0x00)
    Total Length: 1500
    Identification: 0xd80e (55310)
    Flags: 0x02 (Don't Fragment)
        0... .... = Reserved bit: Not set
        .1.. .... = Don't fragment: Set
        ..0. .... = More fragments: Not set
    Fragment offset: 0
    Time to live: 128
    Protocol: TCP (6)
    Header checksum: 0x988b [validation disabled]
        [Good: False]
        [Bad: False]
    Source: 192.168.1.147 (192.168.1.147)
    Destination: 192.168.1.158 (192.168.1.158)
    [Source GeoIP: Unknown]
    [Destination GeoIP: Unknown]
Transmission Control Protocol, Src Port: rtsp (554), Dst Port: ibm-pps (1376), Seq: 1461, Ack: 395, Len: 1460
    Source port: rtsp (554)
    Destination port: ibm-pps (1376)
    [Stream index: 1]
    Sequence number: 1461    (relative sequence number)
    [Next sequence number: 2921    (relative sequence number)]
    Acknowledgment number: 395    (relative ack number)
    Header length: 20 bytes
    Flags: 0x010 (ACK)
        000. .... .... = Reserved: Not set
        ...0 .... .... = Nonce: Not set
        .... 0... .... = Congestion Window Reduced (CWR): Not set
        .... .0.. .... = ECN-Echo: Not set
        .... ..0. .... = Urgent: Not set
        .... ...1 .... = Acknowledgment: Set
        .... .... 0... = Push: Not set
        .... .... .0.. = Reset: Not set
        .... .... ..0. = Syn: Not set
        .... .... ...0 = Fin: Not set
    Window size value: 63846
    [Calculated window size: 63846]
    [Window size scaling factor: -2 (no window scaling used)]
    Checksum: 0xaabd [validation disabled]
        [Good Checksum: False]
        [Bad Checksum: False]
    [SEQ/ACK analysis]
        [Bytes in flight: 2920]
    [Reassembled PDU in frame: 15]
    TCP segment data (1460 bytes)

0000  00 0c 29 10 03 da 00 0c 29 16 97 b1 08 00 45 00   ..).....).....E.
0010  05 dc d8 0e 40 00 80 06 98 8b c0 a8 01 93 c0 a8   ....@...........
0020  01 9e 02 2a 05 60 9f 1a 2f b7 ff 1d 4a b2 50 10   ...*.`../...J.P.
0030  f9 66 aa bd 00 00 41 47 45 41 64 41 42 70 41 47   .f....AGEAdABpAG
0040  34 41 5a 77 41 41 41 41 41 41 48 41 42 54 41 48   4AZwAAAAAAHABTAH
0050  51 41 59 51 42 30 41 47 6b 41 59 77 42 66 41 46   QAYQB0AGkAYwBfAF
0060  49 41 59 51 42 30 41 47 6b 41 62 67 42 6e 41 41   IAYQB0AGkAbgBnAA
0070  41 41 48 41 42 58 41 45 30 41 52 67 42 54 41 45   AAHABXAE0ARgBTAE
0080  51 41 53 77 42 57 41 47 55 41 63 67 42 7a 41 47   QASwBWAGUAcgBzAG
0090  6b 41 62 77 42 75 41 41 41 41 41 41 41 61 41 44   kAbwBuAAAAAAAaAD
00a0  6b 41 4c 67 41 77 41 44 41 41 4c 67 41 77 41 44   kALgAwADAALgAwAD
00b0  41 41 4c 67 41 79 41 44 6b 41 4f 51 41 78 41 41   AALgAyADkAOQAxAA
00c0  41 41 47 67 42 58 41 45 30 41 52 67 42 54 41 45   AAGgBXAE0ARgBTAE
00d0  51 41 53 77 42 4f 41 47 55 41 5a 51 42 6b 41 47   QASwBOAGUAZQBkAG
00e0  55 41 5a 41 41 41 41 41 41 41 46 67 41 77 41 43   UAZAAAAAAAFgAwAC
00f0  34 41 4d 41 41 75 41 44 41 41 4c 67 41 77 41 44   4AMAAuADAALgAwAD
0100  41 41 4d 41 41 77 41 41 41 41 44 41 42 4a 41 48   AAMAAwAAAADABJAH
0110  4d 41 56 67 42 43 41 46 49 41 41 41 41 43 41 41   MAVgBCAFIAAAACAA
0120  51 41 41 41 41 41 41 44 4d 6d 73 6e 57 4f 5a 73   QAAAAAADMmsnWOZs
0130  38 52 70 74 6b 41 71 67 42 69 7a 6d 79 53 41 41   8RptkAqgBizmySAA
0140  41 41 41 41 41 41 41 42 6f 41 48 41 41 69 41 42   AAAAAAABoAHAAiAB
0150  67 41 41 41 42 54 41 48 51 41 59 51 42 30 41 47   gAAABTAHQAYQB0AG
0160  6b 41 59 77 42 66 41 46 51 41 61 51 42 30 41 47   kAYwBfAFQAaQB0AG
0170  77 41 5a 51 41 41 41 46 4d 41 64 41 42 68 41 48   wAZQAAAFMAdABhAH
0180  51 41 61 51 42 6a 41 46 38 41 51 51 42 31 41 48   QAaQBjAF8AQQB1AH
0190  51 41 61 41 42 76 41 48 49 41 41 41 42 54 41 48   QAaABvAHIAAABTAH
01a0  51 41 59 51 42 30 41 47 6b 41 59 77 42 66 41 45   QAYQB0AGkAYwBfAE
01b0  4d 41 62 77 42 77 41 48 6b 41 63 67 42 70 41 47   MAbwBwAHkAcgBpAG
01c0  63 41 61 41 42 30 41 41 41 41 55 77 42 30 41 47   cAaAB0AAAAUwB0AG
01d0  45 41 64 41 42 70 41 47 4d 41 58 77 42 45 41 47   EAdABpAGMAXwBEAG
01e0  55 41 63 77 42 6a 41 41 41 41 51 46 4c 52 68 68   UAcwBjAAAAQFLRhh
01f0  30 78 30 42 47 6a 70 41 43 67 79 51 4e 49 39 71   0x0BGjpACgyQNI9q
0200  6f 41 41 41 41 41 41 41 41 41 51 56 4c 52 68 68   oAAAAAAAAAQVLRhh
0210  30 78 30 42 47 6a 70 41 43 67 79 51 4e 49 39 67   0x0BGjpACgyQNI9g
0220  45 41 41 41 41 43 41 42 59 41 56 77 42 70 41 47   EAAAACABYAVwBpAG
0230  34 41 5a 41 42 76 41 48 63 41 63 77 41 67 41 45   4AZABvAHcAcwAgAE
0240  30 41 5a 51 42 6b 41 47 6b 41 59 51 41 67 41 45   0AZQBkAGkAYQAgAE
0250  45 41 64 51 42 6b 41 47 6b 41 62 77 41 67 41 44   EAdQBkAGkAbwAgAD
0260  6b 41 41 41 41 6b 41 43 41 41 4e 67 41 30 41 43   kAAAAkACAANgA0AC
0270  41 41 61 77 42 69 41 48 41 41 63 77 41 73 41 43   AAawBiAHAAcwAsAC
0280  41 41 4e 41 41 34 41 43 41 41 61 77 42 49 41 48   AANAA4ACAAawBIAH
0290  6f 41 4c 41 41 67 41 48 4d 41 64 41 42 6c 41 48   oALAAgAHMAdABlAH
02a0  49 41 5a 51 42 76 41 43 41 41 4d 51 41 74 41 48   IAZQBvACAAMQAtAH
02b0  41 41 59 51 42 7a 41 48 4d 41 49 41 42 44 41 45   AAYQBzAHMAIABDAE
02c0  49 41 55 67 41 41 41 41 49 41 59 51 48 4f 64 66   IAUgAAAAIAYQHOdf
02d0  68 37 6a 55 62 52 45 59 32 43 41 47 43 58 79 61   h7jUbREY2CAGCXya
02e0  4b 79 4a 67 41 41 41 41 41 41 41 41 41 43 41 41   KyJgAAAAAAAAACAA
02f0  45 41 32 50 77 41 41 41 49 41 6f 69 30 41 41 4b   EA2PwAAAIAoi0AAK
0300  48 63 71 34 78 48 71 63 38 52 6a 75 51 41 77 41   Hcq4xHqc8RjuQAwA
0310  77 67 55 32 56 6f 41 41 41 41 41 41 41 41 41 44   wgU2VoAAAAAAAAAD
0320  52 2f 2b 69 76 34 59 49 74 4b 71 31 6a 2f 4e 6e   R/+iv4YItKq1j/Nn
0330  73 68 50 36 36 5a 43 77 41 41 41 41 41 41 41 48   shP66ZCwAAAAAAAH
0340  41 42 5a 65 6a 4c 70 64 77 42 2f 2f 2f 2f 2f 77   ABZejLpdwB/////w
0350  41 41 41 41 41 41 41 41 41 41 41 41 41 41 41 41   AAAAAAAAAAAAAAAA
0360  41 41 41 41 41 41 41 41 41 41 75 41 73 41 41 41   AAAAAAAAAAuAsAAA
0370  41 41 41 41 41 4a 41 41 41 41 79 67 6f 41 41 4d   AAAAAJAAAAygoAAM
0380  6f 4b 41 41 42 36 4b 67 45 41 74 51 4f 2f 58 79   oKAAB6KgEAtQO/Xy
0390  36 70 7a 78 47 4f 34 77 44 41 44 43 42 54 5a 64   6pzxGO4wDADCBTZd
03a0  63 48 41 41 41 41 41 41 41 41 45 64 4c 54 71 37   cHAAAAAAAAEdLTq7
03b0  71 70 7a 78 47 4f 35 67 44 41 44 43 42 54 5a 51   qpzxGO5gDADCBTZQ
03c0  59 41 71 51 63 41 41 4b 6c 47 51 33 7a 67 37 2f   YAqQcAAKlGQ3zg7/
03d0  78 4c 73 69 6b 35 50 74 35 42 58 49 55 6e 41 41   xLsik5Pt5BXIUnAA
03e0  41 41 41 41 41 41 41 41 45 41 44 47 55 41 62 67   AAAAAAAAEADGUAbg
03f0  41 74 41 48 55 41 63 77 41 41 41 4f 72 4c 2b 4d   AtAHUAcwAAAOrL+M
0400  57 76 57 33 64 49 68 47 65 71 6a 45 54 36 54 4d   WvW3dIhGeqjET6TM
0410  71 34 41 41 41 41 41 41 41 41 41 41 4d 41 41 41   q4AAAAAAAAAAMAAA
0420  41 42 41 41 77 41 41 67 41 43 41 41 41 41 53 51   ABAAwAAgACAAAASQ
0430  42 7a 41 46 59 41 51 67 42 53 41 41 41 41 41 41   BzAFYAQgBSAAAAAA
0440  41 41 41 41 45 41 4e 41 41 41 41 41 59 41 41 41   AAAAEANAAAAAYAAA
0450  42 45 41 47 55 41 64 67 42 70 41 47 4d 41 5a 51   BEAGUAdgBpAGMAZQ
0460  42 44 41 47 38 41 62 67 42 6d 41 47 38 41 63 67   BDAG8AbgBmAG8Acg
0470  42 74 41 47 45 41 62 67 42 6a 41 47 55 41 56 41   BtAGEAbgBjAGUAVA
0480  42 6c 41 47 30 41 63 41 42 73 41 47 45 41 64 41   BlAG0AcABsAGEAdA
0490  42 6c 41 41 41 41 54 41 41 79 41 41 41 41 41 41   BlAAAATAAyAAAAAA
04a0  41 42 41 43 34 41 41 77 41 45 41 41 41 41 56 77   ABAC4AAwAEAAAAVw
04b0  42 4e 41 43 38 41 56 77 42 4e 41 45 45 41 52 41   BNAC8AVwBNAEEARA
04c0  42 53 41 45 4d 41 55 41 42 6c 41 47 45 41 61 77   BSAEMAUABlAGEAaw
04d0  42 53 41 47 55 41 5a 67 42 6c 41 48 49 41 5a 51   BSAGUAZgBlAHIAZQ
04e0  42 75 41 47 4d 41 5a 51 41 41 41 41 45 41 41 41   BuAGMAZQAAAAEAAA
04f0  44 4c 70 65 59 55 63 73 59 79 51 34 4f 5a 71 57   DLpeYUcsYyQ4OZqW
0500  6c 53 42 6c 74 61 57 41 41 41 41 41 41 41 41 41   lSBltaWAAAAAAAAA
0510  41 41 41 41 41 41 41 41 41 41 41 41 41 41 41 41   AAAAAAAAAAAAAAAA
0520  41 41 41 41 41 41 43 50 6f 41 41 4b 6f 46 41 41   AAAAAACPoAAKoFAA
0530  41 41 41 41 41 41 43 50 6f 41 41 4b 6f 46 41 41   AAAAAACPoAAKoFAA
0540  41 41 41 41 41 41 71 77 6f 41 41 41 41 41 41 41   AAAAAAqwoAAAAAAA
0550  41 42 41 41 41 41 41 41 41 41 41 41 41 41 41 41   ABAAAAAAAAAAAAAA
0560  41 41 41 41 41 41 79 36 58 6d 46 48 4c 47 4d 6b   AAAAAAy6XmFHLGMk
0570  4f 44 6d 61 6c 70 55 67 5a 62 57 6c 67 41 41 41   ODmalpUgZbWlgAAA
0580  41 41 41 41 41 41 41 41 41 41 41 41 41 41 41 41   AAAAAAAAAAAAAAAA
0590  41 41 41 41 41 41 41 41 41 41 41 42 41 6e 41 41   AAAAAAAAAAABAnAA
05a0  43 34 43 77 41 41 41 41 41 41 41 42 41 6e 41 41   C4CwAAAAAAABAnAA
05b0  43 34 43 77 41 41 41 41 41 41 41 41 41 41 41 41   C4CwAAAAAAAAAAAA
05c0  41 41 41 41 41 41 41 67 41 41 41 41 41 41 41 41   AAAAAAAgAAAAAAAA
05d0  41 41 41 41 41 41 41 41 41 41 41 46 32 4c 38 53   AAAAAAAAAAAF2L8S
05e0  61 45 52 65 78 48 6e 31 38 4f                     aERexHn18O

No.     Time           Source                Destination           Protocol Length Info
     11 0.068581000    192.168.1.158         192.168.1.147         TCP      54     ibm-pps > rtsp [ACK] Seq=395 Ack=2921 Win=64240 Len=0

Frame 11: 54 bytes on wire (432 bits), 54 bytes captured (432 bits) on interface 0
    Interface id: 0
    Encapsulation type: Ethernet (1)
    Arrival Time: Feb 24, 2026 12:29:31.168089000 Pacific Standard Time
    [Time shift for this packet: 0.000000000 seconds]
    Epoch Time: 1771964971.168089000 seconds
    [Time delta from previous captured frame: 0.000009000 seconds]
    [Time delta from previous displayed frame: 0.000009000 seconds]
    [Time since reference or first frame: 0.068581000 seconds]
    Frame Number: 11
    Frame Length: 54 bytes (432 bits)
    Capture Length: 54 bytes (432 bits)
    [Frame is marked: False]
    [Frame is ignored: False]
    [Protocols in frame: eth:ip:tcp]
    [Coloring Rule Name: TCP]
    [Coloring Rule String: tcp]
Ethernet II, Src: Vmware_10:03:da (00:0c:29:10:03:da), Dst: Vmware_16:97:b1 (00:0c:29:16:97:b1)
    Destination: Vmware_16:97:b1 (00:0c:29:16:97:b1)
        Address: Vmware_16:97:b1 (00:0c:29:16:97:b1)
        .... ..0. .... .... .... .... = LG bit: Globally unique address (factory default)
        .... ...0 .... .... .... .... = IG bit: Individual address (unicast)
    Source: Vmware_10:03:da (00:0c:29:10:03:da)
        Address: Vmware_10:03:da (00:0c:29:10:03:da)
        .... ..0. .... .... .... .... = LG bit: Globally unique address (factory default)
        .... ...0 .... .... .... .... = IG bit: Individual address (unicast)
    Type: IP (0x0800)
Internet Protocol Version 4, Src: 192.168.1.158 (192.168.1.158), Dst: 192.168.1.147 (192.168.1.147)
    Version: 4
    Header length: 20 bytes
    Differentiated Services Field: 0x00 (DSCP 0x00: Default; ECN: 0x00: Not-ECT (Not ECN-Capable Transport))
        0000 00.. = Differentiated Services Codepoint: Default (0x00)
        .... ..00 = Explicit Congestion Notification: Not-ECT (Not ECN-Capable Transport) (0x00)
    Total Length: 40
    Identification: 0x3e01 (15873)
    Flags: 0x02 (Don't Fragment)
        0... .... = Reserved bit: Not set
        .1.. .... = Don't fragment: Set
        ..0. .... = More fragments: Not set
    Fragment offset: 0
    Time to live: 128
    Protocol: TCP (6)
    Header checksum: 0x384d [validation disabled]
        [Good: False]
        [Bad: False]
    Source: 192.168.1.158 (192.168.1.158)
    Destination: 192.168.1.147 (192.168.1.147)
    [Source GeoIP: Unknown]
    [Destination GeoIP: Unknown]
Transmission Control Protocol, Src Port: ibm-pps (1376), Dst Port: rtsp (554), Seq: 395, Ack: 2921, Len: 0
    Source port: ibm-pps (1376)
    Destination port: rtsp (554)
    [Stream index: 1]
    Sequence number: 395    (relative sequence number)
    Acknowledgment number: 2921    (relative ack number)
    Header length: 20 bytes
    Flags: 0x010 (ACK)
        000. .... .... = Reserved: Not set
        ...0 .... .... = Nonce: Not set
        .... 0... .... = Congestion Window Reduced (CWR): Not set
        .... .0.. .... = ECN-Echo: Not set
        .... ..0. .... = Urgent: Not set
        .... ...1 .... = Acknowledgment: Set
        .... .... 0... = Push: Not set
        .... .... .0.. = Reset: Not set
        .... .... ..0. = Syn: Not set
        .... .... ...0 = Fin: Not set
    Window size value: 64240
    [Calculated window size: 64240]
    [Window size scaling factor: -2 (no window scaling used)]
    Checksum: 0x0a82 [validation disabled]
        [Good Checksum: False]
        [Bad Checksum: False]
    [SEQ/ACK analysis]
        [This is an ACK to the segment in frame: 10]
        [The RTT to ACK the segment was: 0.000009000 seconds]

0000  00 0c 29 16 97 b1 00 0c 29 10 03 da 08 00 45 00   ..).....).....E.
0010  00 28 3e 01 40 00 80 06 38 4d c0 a8 01 9e c0 a8   .(>.@...8M......
0020  01 93 05 60 02 2a ff 1d 4a b2 9f 1a 35 6b 50 10   ...`.*..J...5kP.
0030  fa f0 0a 82 00 00                                 ......

No.     Time           Source                Destination           Protocol Length Info
     12 0.198488000    192.168.1.147         192.168.1.158         TCP      60     [TCP Dup ACK 10#1] rtsp > ibm-pps [ACK] Seq=2921 Ack=395 Win=63846 Len=0

Frame 12: 60 bytes on wire (480 bits), 60 bytes captured (480 bits) on interface 0
    Interface id: 0
    Encapsulation type: Ethernet (1)
    Arrival Time: Feb 24, 2026 12:29:31.297996000 Pacific Standard Time
    [Time shift for this packet: 0.000000000 seconds]
    Epoch Time: 1771964971.297996000 seconds
    [Time delta from previous captured frame: 0.129907000 seconds]
    [Time delta from previous displayed frame: 0.129907000 seconds]
    [Time since reference or first frame: 0.198488000 seconds]
    Frame Number: 12
    Frame Length: 60 bytes (480 bits)
    Capture Length: 60 bytes (480 bits)
    [Frame is marked: False]
    [Frame is ignored: False]
    [Protocols in frame: eth:ip:tcp]
    [Coloring Rule Name: Bad TCP]
    [Coloring Rule String: tcp.analysis.flags && !tcp.analysis.window_update]
Ethernet II, Src: Vmware_16:97:b1 (00:0c:29:16:97:b1), Dst: Vmware_10:03:da (00:0c:29:10:03:da)
    Destination: Vmware_10:03:da (00:0c:29:10:03:da)
        Address: Vmware_10:03:da (00:0c:29:10:03:da)
        .... ..0. .... .... .... .... = LG bit: Globally unique address (factory default)
        .... ...0 .... .... .... .... = IG bit: Individual address (unicast)
    Source: Vmware_16:97:b1 (00:0c:29:16:97:b1)
        Address: Vmware_16:97:b1 (00:0c:29:16:97:b1)
        .... ..0. .... .... .... .... = LG bit: Globally unique address (factory default)
        .... ...0 .... .... .... .... = IG bit: Individual address (unicast)
    Type: IP (0x0800)
    Padding: 000000000000
Internet Protocol Version 4, Src: 192.168.1.147 (192.168.1.147), Dst: 192.168.1.158 (192.168.1.158)
    Version: 4
    Header length: 20 bytes
    Differentiated Services Field: 0x00 (DSCP 0x00: Default; ECN: 0x00: Not-ECT (Not ECN-Capable Transport))
        0000 00.. = Differentiated Services Codepoint: Default (0x00)
        .... ..00 = Explicit Congestion Notification: Not-ECT (Not ECN-Capable Transport) (0x00)
    Total Length: 40
    Identification: 0xd810 (55312)
    Flags: 0x02 (Don't Fragment)
        0... .... = Reserved bit: Not set
        .1.. .... = Don't fragment: Set
        ..0. .... = More fragments: Not set
    Fragment offset: 0
    Time to live: 128
    Protocol: TCP (6)
    Header checksum: 0x9e3d [validation disabled]
        [Good: False]
        [Bad: False]
    Source: 192.168.1.147 (192.168.1.147)
    Destination: 192.168.1.158 (192.168.1.158)
    [Source GeoIP: Unknown]
    [Destination GeoIP: Unknown]
Transmission Control Protocol, Src Port: rtsp (554), Dst Port: ibm-pps (1376), Seq: 2921, Ack: 395, Len: 0
    Source port: rtsp (554)
    Destination port: ibm-pps (1376)
    [Stream index: 1]
    Sequence number: 2921    (relative sequence number)
    Acknowledgment number: 395    (relative ack number)
    Header length: 20 bytes
    Flags: 0x010 (ACK)
        000. .... .... = Reserved: Not set
        ...0 .... .... = Nonce: Not set
        .... 0... .... = Congestion Window Reduced (CWR): Not set
        .... .0.. .... = ECN-Echo: Not set
        .... ..0. .... = Urgent: Not set
        .... ...1 .... = Acknowledgment: Set
        .... .... 0... = Push: Not set
        .... .... .0.. = Reset: Not set
        .... .... ..0. = Syn: Not set
        .... .... ...0 = Fin: Not set
    Window size value: 63846
    [Calculated window size: 63846]
    [Window size scaling factor: -2 (no window scaling used)]
    Checksum: 0x0c0c [validation disabled]
        [Good Checksum: False]
        [Bad Checksum: False]
    [SEQ/ACK analysis]
        [TCP Analysis Flags]
            [This is a TCP duplicate ack]
        [Duplicate ACK #: 1]
        [Duplicate to the ACK in frame: 10]
            [Expert Info (Note/Sequence): Duplicate ACK (#1)]
                [Message: Duplicate ACK (#1)]
                [Severity level: Note]
                [Group: Sequence]

0000  00 0c 29 10 03 da 00 0c 29 16 97 b1 08 00 45 00   ..).....).....E.
0010  00 28 d8 10 40 00 80 06 9e 3d c0 a8 01 93 c0 a8   .(..@....=......
0020  01 9e 02 2a 05 60 9f 1a 35 6b ff 1d 4a b2 50 10   ...*.`..5k..J.P.
0030  f9 66 0c 0c 00 00 00 00 00 00 00 00               .f..........

No.     Time           Source                Destination           Protocol Length Info
     13 2.310878000    192.168.1.147         192.168.1.158         TCP      1514   [TCP segment of a reassembled PDU]

Frame 13: 1514 bytes on wire (12112 bits), 1514 bytes captured (12112 bits) on interface 0
    Interface id: 0
    Encapsulation type: Ethernet (1)
    Arrival Time: Feb 24, 2026 12:29:33.410386000 Pacific Standard Time
    [Time shift for this packet: 0.000000000 seconds]
    Epoch Time: 1771964973.410386000 seconds
    [Time delta from previous captured frame: 2.112390000 seconds]
    [Time delta from previous displayed frame: 2.112390000 seconds]
    [Time since reference or first frame: 2.310878000 seconds]
    Frame Number: 13
    Frame Length: 1514 bytes (12112 bits)
    Capture Length: 1514 bytes (12112 bits)
    [Frame is marked: False]
    [Frame is ignored: False]
    [Protocols in frame: eth:ip:tcp]
Ethernet II, Src: Vmware_16:97:b1 (00:0c:29:16:97:b1), Dst: Vmware_10:03:da (00:0c:29:10:03:da)
    Destination: Vmware_10:03:da (00:0c:29:10:03:da)
        Address: Vmware_10:03:da (00:0c:29:10:03:da)
        .... ..0. .... .... .... .... = LG bit: Globally unique address (factory default)
        .... ...0 .... .... .... .... = IG bit: Individual address (unicast)
    Source: Vmware_16:97:b1 (00:0c:29:16:97:b1)
        Address: Vmware_16:97:b1 (00:0c:29:16:97:b1)
        .... ..0. .... .... .... .... = LG bit: Globally unique address (factory default)
        .... ...0 .... .... .... .... = IG bit: Individual address (unicast)
    Type: IP (0x0800)
Internet Protocol Version 4, Src: 192.168.1.147 (192.168.1.147), Dst: 192.168.1.158 (192.168.1.158)
    Version: 4
    Header length: 20 bytes
    Differentiated Services Field: 0x00 (DSCP 0x00: Default; ECN: 0x00: Not-ECT (Not ECN-Capable Transport))
        0000 00.. = Differentiated Services Codepoint: Default (0x00)
        .... ..00 = Explicit Congestion Notification: Not-ECT (Not ECN-Capable Transport) (0x00)
    Total Length: 1500
    Identification: 0xd829 (55337)
    Flags: 0x02 (Don't Fragment)
        0... .... = Reserved bit: Not set
        .1.. .... = Don't fragment: Set
        ..0. .... = More fragments: Not set
    Fragment offset: 0
    Time to live: 128
    Protocol: TCP (6)
    Header checksum: 0x9870 [validation disabled]
        [Good: False]
        [Bad: False]
    Source: 192.168.1.147 (192.168.1.147)
    Destination: 192.168.1.158 (192.168.1.158)
    [Source GeoIP: Unknown]
    [Destination GeoIP: Unknown]
Transmission Control Protocol, Src Port: rtsp (554), Dst Port: ibm-pps (1376), Seq: 2921, Ack: 395, Len: 1460
    Source port: rtsp (554)
    Destination port: ibm-pps (1376)
    [Stream index: 1]
    Sequence number: 2921    (relative sequence number)
    [Next sequence number: 4381    (relative sequence number)]
    Acknowledgment number: 395    (relative ack number)
    Header length: 20 bytes
    Flags: 0x010 (ACK)
        000. .... .... = Reserved: Not set
        ...0 .... .... = Nonce: Not set
        .... 0... .... = Congestion Window Reduced (CWR): Not set
        .... .0.. .... = ECN-Echo: Not set
        .... ..0. .... = Urgent: Not set
        .... ...1 .... = Acknowledgment: Set
        .... .... 0... = Push: Not set
        .... .... .0.. = Reset: Not set
        .... .... ..0. = Syn: Not set
        .... .... ...0 = Fin: Not set
    Window size value: 63846
    [Calculated window size: 63846]
    [Window size scaling factor: -2 (no window scaling used)]
    Checksum: 0xaae8 [validation disabled]
        [Good Checksum: False]
        [Bad Checksum: False]
    [SEQ/ACK analysis]
        [Bytes in flight: 1460]
    [Reassembled PDU in frame: 15]
    TCP segment data (1460 bytes)

0000  00 0c 29 10 03 da 00 0c 29 16 97 b1 08 00 45 00   ..).....).....E.
0010  05 dc d8 29 40 00 80 06 98 70 c0 a8 01 93 c0 a8   ...)@....p......
0020  01 9e 02 2a 05 60 9f 1a 35 6b ff 1d 4a b2 50 10   ...*.`..5k..J.P.
0030  f9 66 aa e8 00 00 5a 52 38 45 55 73 6b 61 41 41   .f....ZR8EUskaAA
0040  41 41 41 41 41 41 41 41 49 42 64 4e 51 47 47 4e   AAAAAAAAIBdNQGGN
0050  2f 4b 43 55 57 6b 75 70 71 72 79 35 61 71 36 41   /KCUWkupqry5aq6A
0060  41 47 41 41 41 41 41 41 41 41 41 41 41 41 41 41   AGAAAAAAAAAAAAAA
0070  41 41 41 41 41 41 41 41 41 41 41 41 41 41 41 41   AAAAAAAAAAAAAAAA
0080  41 41 41 41 41 41 41 41 41 41 41 41 41 41 41 41   AAAAAAAAAAAAAAAA
0090  41 41 41 41 41 41 41 41 41 41 41 41 41 41 41 41   AAAAAAAAAAAAAAAA
00a0  41 41 41 41 41 41 41 41 41 41 41 41 41 41 41 41   AAAAAAAAAAAAAAAA
00b0  41 41 41 41 41 41 41 41 41 41 41 41 41 41 41 41   AAAAAAAAAAAAAAAA
00c0  41 41 41 41 41 41 41 41 41 41 41 41 41 41 41 41   AAAAAAAAAAAAAAAA
00d0  41 41 41 41 41 41 41 41 41 41 41 41 41 41 41 41   AAAAAAAAAAAAAAAA
00e0  41 41 41 41 41 41 41 41 41 41 41 41 41 41 41 41   AAAAAAAAAAAAAAAA
00f0  41 41 41 41 41 41 41 41 41 41 41 41 41 41 41 41   AAAAAAAAAAAAAAAA
0100  41 41 41 41 41 41 41 41 41 41 41 41 41 41 41 41   AAAAAAAAAAAAAAAA
0110  41 41 41 41 41 41 41 41 41 41 41 41 41 41 41 41   AAAAAAAAAAAAAAAA
0120  41 41 41 41 41 41 41 41 41 41 41 41 41 41 41 41   AAAAAAAAAAAAAAAA
0130  41 41 41 41 41 41 41 41 41 41 41 41 41 41 41 41   AAAAAAAAAAAAAAAA
0140  41 41 41 41 41 41 41 41 41 41 41 41 41 41 41 41   AAAAAAAAAAAAAAAA
0150  41 41 41 41 41 41 41 41 41 41 41 41 41 41 41 41   AAAAAAAAAAAAAAAA
0160  41 41 41 41 41 41 41 41 41 41 41 41 41 41 41 41   AAAAAAAAAAAAAAAA
0170  41 41 41 41 41 41 41 41 41 41 41 41 41 41 41 41   AAAAAAAAAAAAAAAA
0180  41 41 41 41 41 41 41 41 41 41 41 41 41 41 41 41   AAAAAAAAAAAAAAAA
0190  41 41 41 41 41 41 41 41 41 41 41 41 41 41 41 41   AAAAAAAAAAAAAAAA
01a0  41 41 41 41 41 41 41 41 41 41 41 41 41 41 41 41   AAAAAAAAAAAAAAAA
01b0  41 41 41 41 41 41 41 41 41 41 41 41 41 41 41 41   AAAAAAAAAAAAAAAA
01c0  41 41 41 41 41 41 41 41 41 41 41 41 41 41 41 41   AAAAAAAAAAAAAAAA
01d0  41 41 41 41 41 41 41 41 41 41 41 41 41 41 41 41   AAAAAAAAAAAAAAAA
01e0  41 41 41 41 41 41 41 41 41 41 41 41 41 41 41 41   AAAAAAAAAAAAAAAA
01f0  41 41 41 41 41 41 41 41 41 41 41 41 41 41 41 41   AAAAAAAAAAAAAAAA
0200  41 41 41 41 41 41 41 41 41 41 41 41 41 41 41 41   AAAAAAAAAAAAAAAA
0210  41 41 41 41 41 41 41 41 41 41 41 41 41 41 41 41   AAAAAAAAAAAAAAAA
0220  41 41 41 41 41 41 41 41 41 41 41 41 41 41 41 41   AAAAAAAAAAAAAAAA
0230  41 41 41 41 41 41 41 41 41 41 41 41 41 41 41 41   AAAAAAAAAAAAAAAA
0240  41 41 41 41 41 41 41 41 41 41 41 41 41 41 41 41   AAAAAAAAAAAAAAAA
0250  41 41 41 41 41 41 41 41 41 41 41 41 41 41 41 41   AAAAAAAAAAAAAAAA
0260  41 41 41 41 41 41 41 41 41 41 41 41 41 41 41 41   AAAAAAAAAAAAAAAA
0270  41 41 41 41 41 41 41 41 41 41 41 41 41 41 41 41   AAAAAAAAAAAAAAAA
0280  41 41 41 41 41 41 41 41 41 41 41 41 41 41 41 41   AAAAAAAAAAAAAAAA
0290  41 41 41 41 41 41 41 41 41 41 41 41 41 41 41 41   AAAAAAAAAAAAAAAA
02a0  41 41 41 41 41 41 41 41 41 41 41 41 41 41 41 41   AAAAAAAAAAAAAAAA
02b0  41 41 41 41 41 41 41 41 41 41 41 41 41 41 41 41   AAAAAAAAAAAAAAAA
02c0  41 41 41 41 41 41 41 41 41 41 41 41 41 41 41 41   AAAAAAAAAAAAAAAA
02d0  41 41 41 41 41 41 41 41 41 41 41 41 41 41 41 41   AAAAAAAAAAAAAAAA
02e0  41 41 41 41 41 41 41 41 41 41 41 41 41 41 41 41   AAAAAAAAAAAAAAAA
02f0  41 41 41 41 41 41 41 41 41 41 41 41 41 41 41 41   AAAAAAAAAAAAAAAA
0300  41 41 41 41 41 41 41 41 41 41 41 41 41 41 41 41   AAAAAAAAAAAAAAAA
0310  41 41 41 41 41 41 41 41 41 41 41 41 41 41 41 41   AAAAAAAAAAAAAAAA
0320  41 41 41 41 41 41 41 41 41 41 41 41 41 41 41 41   AAAAAAAAAAAAAAAA
0330  41 41 41 41 41 41 41 41 41 41 41 41 41 41 41 41   AAAAAAAAAAAAAAAA
0340  41 41 41 41 41 41 41 41 41 41 41 41 41 41 41 41   AAAAAAAAAAAAAAAA
0350  41 41 41 41 41 41 41 41 41 41 41 41 41 41 41 41   AAAAAAAAAAAAAAAA
0360  41 41 41 41 41 41 41 41 41 41 41 41 41 41 41 41   AAAAAAAAAAAAAAAA
0370  41 41 41 41 41 41 41 41 41 41 41 41 41 41 41 41   AAAAAAAAAAAAAAAA
0380  41 41 41 41 41 41 41 41 41 41 41 41 41 41 41 41   AAAAAAAAAAAAAAAA
0390  41 41 41 41 41 41 41 41 41 41 41 41 41 41 41 41   AAAAAAAAAAAAAAAA
03a0  41 41 41 41 41 41 41 41 41 41 41 41 41 41 41 41   AAAAAAAAAAAAAAAA
03b0  41 41 41 41 41 41 41 41 41 41 41 41 41 41 41 41   AAAAAAAAAAAAAAAA
03c0  41 41 41 41 41 41 41 41 41 41 41 41 41 41 41 41   AAAAAAAAAAAAAAAA
03d0  41 41 41 41 41 41 41 41 41 41 41 41 41 41 41 41   AAAAAAAAAAAAAAAA
03e0  41 41 41 41 41 41 41 41 41 41 41 41 41 41 41 41   AAAAAAAAAAAAAAAA
03f0  41 41 41 41 41 41 41 41 41 41 41 41 41 41 41 41   AAAAAAAAAAAAAAAA
0400  41 41 41 41 41 41 41 41 41 41 41 41 41 41 41 41   AAAAAAAAAAAAAAAA
0410  41 41 41 41 41 41 41 41 41 41 41 41 41 41 41 41   AAAAAAAAAAAAAAAA
0420  41 41 41 41 41 41 41 41 41 41 41 41 41 41 41 41   AAAAAAAAAAAAAAAA
0430  41 41 41 41 41 41 41 41 41 41 41 41 41 41 41 41   AAAAAAAAAAAAAAAA
0440  41 41 41 41 41 41 41 41 41 41 41 41 41 41 41 41   AAAAAAAAAAAAAAAA
0450  41 41 41 41 41 41 41 41 41 41 41 41 41 41 41 41   AAAAAAAAAAAAAAAA
0460  41 41 41 41 41 41 41 41 41 41 41 41 41 41 41 41   AAAAAAAAAAAAAAAA
0470  41 41 41 41 41 41 41 41 41 41 41 41 41 41 41 41   AAAAAAAAAAAAAAAA
0480  41 41 41 41 41 41 41 41 41 41 41 41 41 41 41 41   AAAAAAAAAAAAAAAA
0490  41 41 41 41 41 41 41 41 41 41 41 41 41 41 41 41   AAAAAAAAAAAAAAAA
04a0  41 41 41 41 41 41 41 41 41 41 41 41 41 41 41 41   AAAAAAAAAAAAAAAA
04b0  41 41 41 41 41 41 41 41 41 41 41 41 41 41 41 41   AAAAAAAAAAAAAAAA
04c0  41 41 41 41 41 41 41 41 41 41 41 41 41 41 41 41   AAAAAAAAAAAAAAAA
04d0  41 41 41 41 41 41 41 41 41 41 41 41 41 41 41 41   AAAAAAAAAAAAAAAA
04e0  41 41 41 41 41 41 41 41 41 41 41 41 41 41 41 41   AAAAAAAAAAAAAAAA
04f0  41 41 41 41 41 41 41 41 41 41 41 41 41 41 41 41   AAAAAAAAAAAAAAAA
0500  41 41 41 41 41 41 41 41 41 41 41 41 41 41 41 41   AAAAAAAAAAAAAAAA
0510  41 41 41 41 41 41 41 41 41 41 41 41 41 41 41 41   AAAAAAAAAAAAAAAA
0520  41 41 41 41 41 41 41 41 41 41 41 41 41 41 41 41   AAAAAAAAAAAAAAAA
0530  41 41 41 41 41 41 41 41 41 41 41 41 41 41 41 41   AAAAAAAAAAAAAAAA
0540  41 41 41 41 41 41 41 41 41 41 41 41 41 41 41 41   AAAAAAAAAAAAAAAA
0550  41 41 41 41 41 41 41 41 41 41 41 41 41 41 41 41   AAAAAAAAAAAAAAAA
0560  41 41 41 41 41 41 41 41 41 41 41 41 41 41 41 41   AAAAAAAAAAAAAAAA
0570  41 41 41 41 41 41 41 41 41 41 41 41 41 41 41 41   AAAAAAAAAAAAAAAA
0580  41 41 41 41 41 41 41 41 41 41 41 41 41 41 41 41   AAAAAAAAAAAAAAAA
0590  41 41 41 41 41 41 41 41 41 41 41 41 41 41 41 41   AAAAAAAAAAAAAAAA
05a0  41 41 41 41 41 41 41 41 41 41 41 41 41 41 41 41   AAAAAAAAAAAAAAAA
05b0  41 41 41 41 41 41 41 41 41 41 41 41 41 41 41 41   AAAAAAAAAAAAAAAA
05c0  41 41 41 41 41 41 41 41 41 41 41 41 41 41 41 41   AAAAAAAAAAAAAAAA
05d0  41 41 41 41 41 41 41 41 41 41 41 41 41 41 41 41   AAAAAAAAAAAAAAAA
05e0  41 41 41 41 41 41 41 41 41 41                     AAAAAAAAAA

No.     Time           Source                Destination           Protocol Length Info
     14 2.490422000    192.168.1.158         192.168.1.147         TCP      54     ibm-pps > rtsp [ACK] Seq=395 Ack=4381 Win=64240 Len=0

Frame 14: 54 bytes on wire (432 bits), 54 bytes captured (432 bits) on interface 0
    Interface id: 0
    Encapsulation type: Ethernet (1)
    Arrival Time: Feb 24, 2026 12:29:33.589930000 Pacific Standard Time
    [Time shift for this packet: 0.000000000 seconds]
    Epoch Time: 1771964973.589930000 seconds
    [Time delta from previous captured frame: 0.179544000 seconds]
    [Time delta from previous displayed frame: 0.179544000 seconds]
    [Time since reference or first frame: 2.490422000 seconds]
    Frame Number: 14
    Frame Length: 54 bytes (432 bits)
    Capture Length: 54 bytes (432 bits)
    [Frame is marked: False]
    [Frame is ignored: False]
    [Protocols in frame: eth:ip:tcp]
    [Coloring Rule Name: TCP]
    [Coloring Rule String: tcp]
Ethernet II, Src: Vmware_10:03:da (00:0c:29:10:03:da), Dst: Vmware_16:97:b1 (00:0c:29:16:97:b1)
    Destination: Vmware_16:97:b1 (00:0c:29:16:97:b1)
        Address: Vmware_16:97:b1 (00:0c:29:16:97:b1)
        .... ..0. .... .... .... .... = LG bit: Globally unique address (factory default)
        .... ...0 .... .... .... .... = IG bit: Individual address (unicast)
    Source: Vmware_10:03:da (00:0c:29:10:03:da)
        Address: Vmware_10:03:da (00:0c:29:10:03:da)
        .... ..0. .... .... .... .... = LG bit: Globally unique address (factory default)
        .... ...0 .... .... .... .... = IG bit: Individual address (unicast)
    Type: IP (0x0800)
Internet Protocol Version 4, Src: 192.168.1.158 (192.168.1.158), Dst: 192.168.1.147 (192.168.1.147)
    Version: 4
    Header length: 20 bytes
    Differentiated Services Field: 0x00 (DSCP 0x00: Default; ECN: 0x00: Not-ECT (Not ECN-Capable Transport))
        0000 00.. = Differentiated Services Codepoint: Default (0x00)
        .... ..00 = Explicit Congestion Notification: Not-ECT (Not ECN-Capable Transport) (0x00)
    Total Length: 40
    Identification: 0x3e02 (15874)
    Flags: 0x02 (Don't Fragment)
        0... .... = Reserved bit: Not set
        .1.. .... = Don't fragment: Set
        ..0. .... = More fragments: Not set
    Fragment offset: 0
    Time to live: 128
    Protocol: TCP (6)
    Header checksum: 0x384c [validation disabled]
        [Good: False]
        [Bad: False]
    Source: 192.168.1.158 (192.168.1.158)
    Destination: 192.168.1.147 (192.168.1.147)
    [Source GeoIP: Unknown]
    [Destination GeoIP: Unknown]
Transmission Control Protocol, Src Port: ibm-pps (1376), Dst Port: rtsp (554), Seq: 395, Ack: 4381, Len: 0
    Source port: ibm-pps (1376)
    Destination port: rtsp (554)
    [Stream index: 1]
    Sequence number: 395    (relative sequence number)
    Acknowledgment number: 4381    (relative ack number)
    Header length: 20 bytes
    Flags: 0x010 (ACK)
        000. .... .... = Reserved: Not set
        ...0 .... .... = Nonce: Not set
        .... 0... .... = Congestion Window Reduced (CWR): Not set
        .... .0.. .... = ECN-Echo: Not set
        .... ..0. .... = Urgent: Not set
        .... ...1 .... = Acknowledgment: Set
        .... .... 0... = Push: Not set
        .... .... .0.. = Reset: Not set
        .... .... ..0. = Syn: Not set
        .... .... ...0 = Fin: Not set
    Window size value: 64240
    [Calculated window size: 64240]
    [Window size scaling factor: -2 (no window scaling used)]
    Checksum: 0x04ce [validation disabled]
        [Good Checksum: False]
        [Bad Checksum: False]
    [SEQ/ACK analysis]
        [This is an ACK to the segment in frame: 13]
        [The RTT to ACK the segment was: 0.179544000 seconds]

0000  00 0c 29 16 97 b1 00 0c 29 10 03 da 08 00 45 00   ..).....).....E.
0010  00 28 3e 02 40 00 80 06 38 4c c0 a8 01 9e c0 a8   .(>.@...8L......
0020  01 93 05 60 02 2a ff 1d 4a b2 9f 1a 3b 1f 50 10   ...`.*..J...;.P.
0030  fa f0 04 ce 00 00                                 ......

No.     Time           Source                Destination           Protocol Length Info
     15 2.490622000    192.168.1.147         192.168.1.158         RTSP/SDP 1328   Reply: RTSP/1.0 200 OK

Frame 15: 1328 bytes on wire (10624 bits), 1328 bytes captured (10624 bits) on interface 0
    Interface id: 0
    Encapsulation type: Ethernet (1)
    Arrival Time: Feb 24, 2026 12:29:33.590130000 Pacific Standard Time
    [Time shift for this packet: 0.000000000 seconds]
    Epoch Time: 1771964973.590130000 seconds
    [Time delta from previous captured frame: 0.000200000 seconds]
    [Time delta from previous displayed frame: 0.000200000 seconds]
    [Time since reference or first frame: 2.490622000 seconds]
    Frame Number: 15
    Frame Length: 1328 bytes (10624 bits)
    Capture Length: 1328 bytes (10624 bits)
    [Frame is marked: False]
    [Frame is ignored: False]
    [Protocols in frame: eth:ip:tcp:rtsp:sdp]
    [Coloring Rule Name: TCP]
    [Coloring Rule String: tcp]
Ethernet II, Src: Vmware_16:97:b1 (00:0c:29:16:97:b1), Dst: Vmware_10:03:da (00:0c:29:10:03:da)
    Destination: Vmware_10:03:da (00:0c:29:10:03:da)
        Address: Vmware_10:03:da (00:0c:29:10:03:da)
        .... ..0. .... .... .... .... = LG bit: Globally unique address (factory default)
        .... ...0 .... .... .... .... = IG bit: Individual address (unicast)
    Source: Vmware_16:97:b1 (00:0c:29:16:97:b1)
        Address: Vmware_16:97:b1 (00:0c:29:16:97:b1)
        .... ..0. .... .... .... .... = LG bit: Globally unique address (factory default)
        .... ...0 .... .... .... .... = IG bit: Individual address (unicast)
    Type: IP (0x0800)
Internet Protocol Version 4, Src: 192.168.1.147 (192.168.1.147), Dst: 192.168.1.158 (192.168.1.158)
    Version: 4
    Header length: 20 bytes
    Differentiated Services Field: 0x00 (DSCP 0x00: Default; ECN: 0x00: Not-ECT (Not ECN-Capable Transport))
        0000 00.. = Differentiated Services Codepoint: Default (0x00)
        .... ..00 = Explicit Congestion Notification: Not-ECT (Not ECN-Capable Transport) (0x00)
    Total Length: 1314
    Identification: 0xd832 (55346)
    Flags: 0x02 (Don't Fragment)
        0... .... = Reserved bit: Not set
        .1.. .... = Don't fragment: Set
        ..0. .... = More fragments: Not set
    Fragment offset: 0
    Time to live: 128
    Protocol: TCP (6)
    Header checksum: 0x9921 [validation disabled]
        [Good: False]
        [Bad: False]
    Source: 192.168.1.147 (192.168.1.147)
    Destination: 192.168.1.158 (192.168.1.158)
    [Source GeoIP: Unknown]
    [Destination GeoIP: Unknown]
Transmission Control Protocol, Src Port: rtsp (554), Dst Port: ibm-pps (1376), Seq: 4381, Ack: 395, Len: 1274
    Source port: rtsp (554)
    Destination port: ibm-pps (1376)
    [Stream index: 1]
    Sequence number: 4381    (relative sequence number)
    [Next sequence number: 5655    (relative sequence number)]
    Acknowledgment number: 395    (relative ack number)
    Header length: 20 bytes
    Flags: 0x018 (PSH, ACK)
        000. .... .... = Reserved: Not set
        ...0 .... .... = Nonce: Not set
        .... 0... .... = Congestion Window Reduced (CWR): Not set
        .... .0.. .... = ECN-Echo: Not set
        .... ..0. .... = Urgent: Not set
        .... ...1 .... = Acknowledgment: Set
        .... .... 1... = Push: Set
        .... .... .0.. = Reset: Not set
        .... .... ..0. = Syn: Not set
        .... .... ...0 = Fin: Not set
    Window size value: 63846
    [Calculated window size: 63846]
    [Window size scaling factor: -2 (no window scaling used)]
    Checksum: 0x02d6 [validation disabled]
        [Good Checksum: False]
        [Bad Checksum: False]
    [SEQ/ACK analysis]
        [Bytes in flight: 1274]
    TCP segment data (1274 bytes)
[4 Reassembled TCP Segments (5654 bytes): #9(1460), #10(1460), #13(1460), #15(1274)]
    [Frame: 9, payload: 0-1459 (1460 bytes)]
    [Frame: 10, payload: 1460-2919 (1460 bytes)]
    [Frame: 13, payload: 2920-4379 (1460 bytes)]
    [Frame: 15, payload: 4380-5653 (1274 bytes)]
    [Segment count: 4]
    [Reassembled TCP length: 5654]
    [Reassembled TCP Data: 525453502f312e3020323030204f4b0d0a436f6e74656e74...]
Real Time Streaming Protocol
    Response: RTSP/1.0 200 OK\r\n
        Status: 200
    Content-type: application/sdp
    Vary: Accept\r\n
    X-Playlist-Gen-Id: 32\r\n
    X-Broadcast-Id: 9\r\n
    Content-length: 5153
    Date: Tue, 24 Feb 2026 20:29:44 GMT\r\n
    CSeq: 1\r\n
    Server: WMServer/9.0.0.3372\r\n
    Supported: com.microsoft.wm.srvppair, com.microsoft.wm.sswitch, com.microsoft.wm.eosmsg, com.microsoft.wm.fastcache, com.microsoft.wm.packetpairssrc\r\n
    Last-Modified: Tue, 24 Feb 2026 20:29:44 GMT\r\n
    Cache-Control: max-age=0, x-wms-stream-type="broadcast", must-revalidate, private, x-wms-proxy-split\r\n
    \r\n
    Session Description Protocol
        Session Description Protocol Version (v): 0
        Owner/Creator, Session Id (o): - 202602242029440906 202602242029440906 IN IP4 127.0.0.1
            Owner Username: -
            Session ID: 202602242029440906
            Session Version: 202602242029440906
            Owner Network Type: IN
            Owner Address Type: IP4
            Owner Address: 127.0.0.1
        Session Name (s): Static_Title
        Connection Information (c): IN IP4 0.0.0.0
            Connection Network Type: IN
            Connection Address Type: IP4
            Connection Address: 0.0.0.0
        Bandwidth Information (b): AS:77
            Bandwidth Modifier: AS [Application Specific (RTP session bandwidth)]
            Bandwidth Value: 77 kb/s
        Session Attribute (a): maxps:2762
            Session Attribute Fieldname: maxps
            Session Attribute Value: 2762
        Time Description, active time (t): 0 0
            Session Start Time: 0
            Session Stop Time: 0
        Session Attribute (a): control:rtsp://192.168.1.147/test/
            Session Attribute Fieldname: control
            Session Attribute Value: rtsp://192.168.1.147/test/
        Session Attribute (a): etag:{5537CE38-9463-6EB5-838A-53E2F732C450}
            Session Attribute Fieldname: etag
            Session Attribute Value: {5537CE38-9463-6EB5-838A-53E2F732C450}
        Session Attribute (a): range:npt=3.000-3.000
            Session Attribute Fieldname: range
            Session Attribute Value: npt=3.000-3.000
        Session Attribute (a): type:broadcast
            Session Attribute Fieldname: type
            Session Attribute Value: broadcast
        Session Attribute (a): recvonly
        Session Attribute (a) [truncated]: pgmpu:data:application/x-wms-contentdesc,8,language,31,0,,44,WMS_CONTENT_DESCRIPTION_SERVER_BRANDING_INFO,31,12,WMServer/9.0,35,WMS_CONTENT_DESCRIPTION_DESCRIPTION,31,11,Static_Desc,9,copyright,31,16,Stat
            Session Attribute Fieldname: pgmpu
            Session Attribute Value [truncated]: data:application/x-wms-contentdesc,8,language,31,0,,44,WMS_CONTENT_DESCRIPTION_SERVER_BRANDING_INFO,31,12,WMServer/9.0,35,WMS_CONTENT_DESCRIPTION_DESCRIPTION,31,11,Static_Desc,9,copyright,31,16,Static_C
        Session Attribute (a) [truncated]: pgmpu:data:application/vnd.ms.wms-hdr.asfv1;base64,MCaydY5mzxGm2QCqAGLObGcLAAAAAAAACAAAAAECQKTQ0gfj0hGX8ACgyV6oUOgAAAAAAAAABAAkAFcATQAvAFAAYQByAGUAbgB0AGEAbABSAGEAdABpAG4AZwAAAAAAHABTAHQAYQB0AGkAYwBfAFIAY
            Session Attribute Fieldname: pgmpu
            Session Attribute Value [truncated]: data:application/vnd.ms.wms-hdr.asfv1;base64,MCaydY5mzxGm2QCqAGLObGcLAAAAAAAACAAAAAECQKTQ0gfj0hGX8ACgyV6oUOgAAAAAAAAABAAkAFcATQAvAFAAYQByAGUAbgB0AGEAbABSAGEAdABpAG4AZwAAAAAAHABTAHQAYQB0AGkAYwBfAFIAYQB0A
        Media Description, name and address (m): audio 0 RTP/AVP 96
            Media Type: audio
            Media Port: 0
            Media Protocol: RTP/AVP
            Media Format: DynamicRTP-Type-96
        Bandwidth Information (b): AS:65
            Bandwidth Modifier: AS [Application Specific (RTP session bandwidth)]
            Bandwidth Value: 65 kb/s
        Bandwidth Information (b): X-AV:65
            Bandwidth Modifier: X-AV
            Bandwidth Value: 65
        Bandwidth Information (b): RS:0
            Bandwidth Modifier: RS
            Bandwidth Value: 0
        Bandwidth Information (b): RR:0
            Bandwidth Modifier: RR
            Bandwidth Value: 0
        Media Attribute (a): rtpmap:96 x-asf-pf/1000
            Media Attribute Fieldname: rtpmap
            Media Format: 96
            MIME Type: x-asf-pf
            Sample Rate: 1000
        Media Attribute (a): control:audio
            Media Attribute Fieldname: control
            Media Attribute Value: audio
        Media Attribute (a): stream:1
            Media Attribute Fieldname: stream
            Media Attribute Value: 1
        Media Description, name and address (m): application 0 RTP/AVP 96
            Media Type: application
            Media Port: 0
            Media Protocol: RTP/AVP
            Media Format: DynamicRTP-Type-96
        Bandwidth Information (b): RS:0
            Bandwidth Modifier: RS
            Bandwidth Value: 0
        Bandwidth Information (b): RR:0
            Bandwidth Modifier: RR
            Bandwidth Value: 0
        Media Attribute (a): rtpmap:96 x-wms-rtx/1000
            Media Attribute Fieldname: rtpmap
            Media Format: 96
            MIME Type: x-wms-rtx
            Sample Rate: 1000
        Media Attribute (a): control:rtx
            Media Attribute Fieldname: control
            Media Attribute Value: rtx
        Media Attribute (a): stream:65536
            Media Attribute Fieldname: stream
            Media Attribute Value: 65536
        Media Description, name and address (m): application 0 RTP/AVP 96
            Media Type: application
            Media Port: 0
            Media Protocol: RTP/AVP
            Media Format: DynamicRTP-Type-96
        Bandwidth Information (b): AS:12
            Bandwidth Modifier: AS [Application Specific (RTP session bandwidth)]
            Bandwidth Value: 12 kb/s
        Bandwidth Information (b): X-AV:10
            Bandwidth Modifier: X-AV
            Bandwidth Value: 10
        Bandwidth Information (b): RS:0
            Bandwidth Modifier: RS
            Bandwidth Value: 0
        Bandwidth Information (b): RR:0
            Bandwidth Modifier: RR
            Bandwidth Value: 0
        Media Attribute (a): rtpmap:96 x-asf-pf/1000
            Media Attribute Fieldname: rtpmap
            Media Format: 96
            MIME Type: x-asf-pf
            Sample Rate: 1000
        Media Attribute (a): control:stream=2
            Media Attribute Fieldname: control
            Media Attribute Value: stream=2
        Media Attribute (a): stream:2
            Media Attribute Fieldname: stream
            Media Attribute Value: 2

Frame (1328 bytes):
0000  00 0c 29 10 03 da 00 0c 29 16 97 b1 08 00 45 00   ..).....).....E.
0010  05 22 d8 32 40 00 80 06 99 21 c0 a8 01 93 c0 a8   .".2@....!......
0020  01 9e 02 2a 05 60 9f 1a 3b 1f ff 1d 4a b2 50 18   ...*.`..;...J.P.
0030  f9 66 02 d6 00 00 41 41 41 41 41 41 41 41 41 41   .f....AAAAAAAAAA
0040  41 41 41 41 41 41 41 41 41 41 41 41 41 41 41 41   AAAAAAAAAAAAAAAA
0050  41 41 41 41 41 41 41 41 41 41 41 41 41 41 41 41   AAAAAAAAAAAAAAAA
0060  41 41 41 41 41 41 41 41 41 41 41 41 41 41 41 41   AAAAAAAAAAAAAAAA
0070  41 41 41 41 41 41 41 41 41 41 41 41 41 41 41 41   AAAAAAAAAAAAAAAA
0080  41 41 41 41 41 41 41 41 41 41 41 41 41 41 41 41   AAAAAAAAAAAAAAAA
0090  41 41 41 41 41 41 41 41 41 41 41 41 41 41 41 41   AAAAAAAAAAAAAAAA
00a0  41 41 41 41 41 41 41 41 41 41 41 41 41 41 41 41   AAAAAAAAAAAAAAAA
00b0  41 41 41 41 41 41 41 41 41 41 41 41 41 41 41 41   AAAAAAAAAAAAAAAA
00c0  41 41 41 41 41 41 41 41 41 41 41 41 41 41 41 41   AAAAAAAAAAAAAAAA
00d0  41 41 41 41 41 41 41 41 41 41 41 41 41 41 41 41   AAAAAAAAAAAAAAAA
00e0  41 41 41 41 41 41 41 41 41 41 41 41 41 41 41 41   AAAAAAAAAAAAAAAA
00f0  41 41 41 41 41 41 41 41 41 41 41 41 41 41 41 41   AAAAAAAAAAAAAAAA
0100  41 41 41 41 41 41 41 41 41 41 41 41 41 41 41 41   AAAAAAAAAAAAAAAA
0110  41 41 41 41 41 41 41 41 41 41 41 41 41 41 41 41   AAAAAAAAAAAAAAAA
0120  41 41 41 41 41 41 41 41 41 41 41 41 41 41 41 41   AAAAAAAAAAAAAAAA
0130  41 41 41 41 41 41 41 41 41 41 41 41 41 41 41 41   AAAAAAAAAAAAAAAA
0140  41 41 41 41 41 41 41 41 41 41 41 41 41 41 41 41   AAAAAAAAAAAAAAAA
0150  41 41 41 41 41 41 41 41 41 41 41 41 41 41 41 41   AAAAAAAAAAAAAAAA
0160  41 41 41 41 41 41 41 41 41 41 41 41 41 41 41 41   AAAAAAAAAAAAAAAA
0170  41 41 41 41 41 41 41 41 41 41 41 41 41 41 41 41   AAAAAAAAAAAAAAAA
0180  41 41 41 41 41 41 41 41 41 41 41 41 41 41 41 41   AAAAAAAAAAAAAAAA
0190  41 41 41 41 41 41 41 41 41 41 41 41 41 41 41 41   AAAAAAAAAAAAAAAA
01a0  41 41 41 41 41 41 41 41 41 41 41 41 41 41 41 41   AAAAAAAAAAAAAAAA
01b0  41 41 41 41 41 41 41 41 41 41 41 41 41 41 41 41   AAAAAAAAAAAAAAAA
01c0  41 41 41 41 41 41 41 41 41 41 41 41 41 41 41 41   AAAAAAAAAAAAAAAA
01d0  41 41 41 41 41 41 41 41 41 41 41 41 41 41 41 41   AAAAAAAAAAAAAAAA
01e0  41 41 41 41 41 41 41 41 41 41 41 41 41 41 41 41   AAAAAAAAAAAAAAAA
01f0  41 41 41 41 41 41 41 41 41 41 41 41 41 41 41 41   AAAAAAAAAAAAAAAA
0200  41 41 41 41 41 41 41 41 41 41 41 41 41 41 41 41   AAAAAAAAAAAAAAAA
0210  41 41 41 41 41 41 41 41 41 41 41 41 41 41 41 41   AAAAAAAAAAAAAAAA
0220  41 41 41 41 41 41 41 41 41 41 41 41 41 41 41 41   AAAAAAAAAAAAAAAA
0230  41 41 41 41 41 41 41 41 41 41 41 41 41 41 41 41   AAAAAAAAAAAAAAAA
0240  41 41 41 41 41 41 41 41 41 41 41 41 41 41 41 41   AAAAAAAAAAAAAAAA
0250  41 41 41 41 41 41 41 41 41 41 41 41 41 41 41 41   AAAAAAAAAAAAAAAA
0260  41 41 41 41 41 41 41 41 41 41 41 41 41 41 41 41   AAAAAAAAAAAAAAAA
0270  41 41 41 41 41 41 41 41 41 41 41 41 41 41 41 41   AAAAAAAAAAAAAAAA
0280  41 41 41 41 41 41 41 41 41 41 41 41 41 41 41 41   AAAAAAAAAAAAAAAA
0290  41 41 41 41 41 41 6b 51 66 63 74 37 65 70 7a 78   AAAAAAkQfct7epzx
02a0  47 4f 35 67 44 41 44 43 42 54 5a 58 49 41 41 41   GO5gDADCBTZXIAAA
02b0  41 41 41 41 41 41 51 4a 35 70 2b 45 31 62 7a 78   AAAAAAQJ5p+E1bzx
02c0  47 6f 2f 51 43 41 58 31 78 45 4b 31 44 4e 77 37   Go/QCAX1xEK1DNw7
02d0  2b 50 59 63 38 52 69 37 49 41 71 67 43 30 34 69   +PYc8Ri7IAqgC04i
02e0  41 41 41 41 41 41 41 41 41 41 41 42 77 41 41 41   AAAAAAAAAAABwAAA
02f0  41 49 41 41 41 41 41 51 41 41 59 73 35 73 59 51   AIAAAAAQAAYs5sYQ
0300  45 43 41 49 43 37 41 41 42 42 48 77 41 41 71 77   ECAIC7AABBHwAAqw
0310  6f 51 41 41 6f 41 41 49 67 41 41 41 38 41 72 53   oQAAoAAIgAAA8ArS
0320  6f 41 41 41 47 72 43 71 73 4b 41 51 41 41 6b 51   oAAAGrCqsKAQAAkQ
0330  66 63 74 37 65 70 7a 78 47 4f 35 67 44 41 44 43   fct7epzxGO5gDADC
0340  42 54 5a 55 34 41 41 41 41 41 41 41 41 41 77 4d   BTZU4AAAAAAAAAwM
0350  2f 61 57 65 5a 5a 30 42 47 6a 72 41 43 67 79 51   /aWeZZ0BGjrACgyQ
0360  4e 49 39 67 42 58 2b 79 42 56 57 38 38 52 71 50   NI9gBX+yBVW88RqP
0370  30 41 67 46 39 63 52 43 73 41 41 41 41 41 41 41   0AgF9cRCsAAAAAAA
0380  41 41 41 41 41 41 41 41 41 41 41 41 41 41 41 67   AAAAAAAAAAAAAAAg
0390  41 41 59 73 35 73 4e 69 61 79 64 59 35 6d 7a 78   AAYs5sNiaydY5mzx
03a0  47 6d 32 51 43 71 41 47 4c 4f 62 44 49 41 41 41   Gm2QCqAGLObDIAAA
03b0  41 41 41 41 41 41 4e 48 2f 36 4b 2f 68 67 69 30   AAAAAANH/6K/hgi0
03c0  71 72 57 50 38 32 65 79 45 2f 72 67 41 41 41 41   qrWP82eyE/rgAAAA
03d0  41 41 41 41 41 41 41 51 45 3d 0d 0a 6d 3d 61 75   AAAAAAAQE=..m=au
03e0  64 69 6f 20 30 20 52 54 50 2f 41 56 50 20 39 36   dio 0 RTP/AVP 96
03f0  0d 0a 62 3d 41 53 3a 36 35 0d 0a 62 3d 58 2d 41   ..b=AS:65..b=X-A
0400  56 3a 36 35 0d 0a 62 3d 52 53 3a 30 0d 0a 62 3d   V:65..b=RS:0..b=
0410  52 52 3a 30 0d 0a 61 3d 72 74 70 6d 61 70 3a 39   RR:0..a=rtpmap:9
0420  36 20 78 2d 61 73 66 2d 70 66 2f 31 30 30 30 0d   6 x-asf-pf/1000.
0430  0a 61 3d 63 6f 6e 74 72 6f 6c 3a 61 75 64 69 6f   .a=control:audio
0440  0d 0a 61 3d 73 74 72 65 61 6d 3a 31 0d 0a 6d 3d   ..a=stream:1..m=
0450  61 70 70 6c 69 63 61 74 69 6f 6e 20 30 20 52 54   application 0 RT
0460  50 2f 41 56 50 20 39 36 0d 0a 62 3d 52 53 3a 30   P/AVP 96..b=RS:0
0470  0d 0a 62 3d 52 52 3a 30 0d 0a 61 3d 72 74 70 6d   ..b=RR:0..a=rtpm
0480  61 70 3a 39 36 20 78 2d 77 6d 73 2d 72 74 78 2f   ap:96 x-wms-rtx/
0490  31 30 30 30 0d 0a 61 3d 63 6f 6e 74 72 6f 6c 3a   1000..a=control:
04a0  72 74 78 0d 0a 61 3d 73 74 72 65 61 6d 3a 36 35   rtx..a=stream:65
04b0  35 33 36 0d 0a 6d 3d 61 70 70 6c 69 63 61 74 69   536..m=applicati
04c0  6f 6e 20 30 20 52 54 50 2f 41 56 50 20 39 36 0d   on 0 RTP/AVP 96.
04d0  0a 62 3d 41 53 3a 31 32 0d 0a 62 3d 58 2d 41 56   .b=AS:12..b=X-AV
04e0  3a 31 30 0d 0a 62 3d 52 53 3a 30 0d 0a 62 3d 52   :10..b=RS:0..b=R
04f0  52 3a 30 0d 0a 61 3d 72 74 70 6d 61 70 3a 39 36   R:0..a=rtpmap:96
0500  20 78 2d 61 73 66 2d 70 66 2f 31 30 30 30 0d 0a    x-asf-pf/1000..
0510  61 3d 63 6f 6e 74 72 6f 6c 3a 73 74 72 65 61 6d   a=control:stream
0520  3d 32 0d 0a 61 3d 73 74 72 65 61 6d 3a 32 0d 0a   =2..a=stream:2..
Reassembled TCP (5654 bytes):
0000  52 54 53 50 2f 31 2e 30 20 32 30 30 20 4f 4b 0d   RTSP/1.0 200 OK.
0010  0a 43 6f 6e 74 65 6e 74 2d 54 79 70 65 3a 20 61   .Content-Type: a
0020  70 70 6c 69 63 61 74 69 6f 6e 2f 73 64 70 0d 0a   pplication/sdp..
0030  56 61 72 79 3a 20 41 63 63 65 70 74 0d 0a 58 2d   Vary: Accept..X-
0040  50 6c 61 79 6c 69 73 74 2d 47 65 6e 2d 49 64 3a   Playlist-Gen-Id:
0050  20 33 32 0d 0a 58 2d 42 72 6f 61 64 63 61 73 74    32..X-Broadcast
0060  2d 49 64 3a 20 39 0d 0a 43 6f 6e 74 65 6e 74 2d   -Id: 9..Content-
0070  4c 65 6e 67 74 68 3a 20 35 31 35 33 0d 0a 44 61   Length: 5153..Da
0080  74 65 3a 20 54 75 65 2c 20 32 34 20 46 65 62 20   te: Tue, 24 Feb 
0090  32 30 32 36 20 32 30 3a 32 39 3a 34 34 20 47 4d   2026 20:29:44 GM
00a0  54 0d 0a 43 53 65 71 3a 20 31 0d 0a 53 65 72 76   T..CSeq: 1..Serv
00b0  65 72 3a 20 57 4d 53 65 72 76 65 72 2f 39 2e 30   er: WMServer/9.0
00c0  2e 30 2e 33 33 37 32 0d 0a 53 75 70 70 6f 72 74   .0.3372..Support
00d0  65 64 3a 20 63 6f 6d 2e 6d 69 63 72 6f 73 6f 66   ed: com.microsof
00e0  74 2e 77 6d 2e 73 72 76 70 70 61 69 72 2c 20 63   t.wm.srvppair, c
00f0  6f 6d 2e 6d 69 63 72 6f 73 6f 66 74 2e 77 6d 2e   om.microsoft.wm.
0100  73 73 77 69 74 63 68 2c 20 63 6f 6d 2e 6d 69 63   sswitch, com.mic
0110  72 6f 73 6f 66 74 2e 77 6d 2e 65 6f 73 6d 73 67   rosoft.wm.eosmsg
0120  2c 20 63 6f 6d 2e 6d 69 63 72 6f 73 6f 66 74 2e   , com.microsoft.
0130  77 6d 2e 66 61 73 74 63 61 63 68 65 2c 20 63 6f   wm.fastcache, co
0140  6d 2e 6d 69 63 72 6f 73 6f 66 74 2e 77 6d 2e 70   m.microsoft.wm.p
0150  61 63 6b 65 74 70 61 69 72 73 73 72 63 0d 0a 4c   acketpairssrc..L
0160  61 73 74 2d 4d 6f 64 69 66 69 65 64 3a 20 54 75   ast-Modified: Tu
0170  65 2c 20 32 34 20 46 65 62 20 32 30 32 36 20 32   e, 24 Feb 2026 2
0180  30 3a 32 39 3a 34 34 20 47 4d 54 0d 0a 43 61 63   0:29:44 GMT..Cac
0190  68 65 2d 43 6f 6e 74 72 6f 6c 3a 20 6d 61 78 2d   he-Control: max-
